:100000000C94FA010C9422020C9422020C94220209
:100010000C9422020C9422020C9422020C942202D0
:100020000C9422020C9422020C9422020C941807C5
:100030000C9422020C9422020C9422020C942202B0
:100040000C9498150C9422020C9422020C94220217
:100050000C9422020C9422020C9422020C94220290
:100060000C9422020C9422024372617A79636172C9
:10007000004372617A796361720008085A5A7E18E7
:10008000183C246C080800183C247E42FFFF080836
:10009000001038040E207000080802037FFE7E4422
:1000A0004400100807F00BD00BFEFFFFFFFFFFFF1F
:1000B000CE27783C03053F213F1208120A100A0E92
:1000C0001C0E0C1E0C141A14161F161E131E1E1BBB
:1000D0001E1E1F1E3F213F3A2F3A173D173F213F5B
:1000E000181F02040A041F0E04040E1F0A1F0A0E22
:1000F0000E1F04110E2E252E2F2A2E262929021F0F
:1001000002081F08150E04040E150E15151B151BED
:10011000040604040C040000000017000300031F81
:100120000A1F16371A1904130A153A000300000EA5
:1001300011110E000A040A040E0400300004040425
:100140000010001804031F111F121F101D15171196
:10015000151F07041F17151D1F151D01011F1F1552
:100160001F17151F000A00003200040A110A0A0AAC
:10017000110A040115020E11171E051E1F150A0E85
:10018000110A1F110E1F15111F05010E111D1F044D
:100190001F111F1108100F1F041B1F10101F061F17
:1001A0001E040F0E110E1F09060E112E1F051A1226
:1001B0001509011F011F101F0F180F1F0C1F1B0413
:1001C0001B031C03191513001F11030418111F0032
:1001D0000201022020200001020C121E1F120C0C32
:1001E00012120C121F0C1A14041E05242A1E1F02C0
:1001F0001C141D1020201D1F0814111F101E041E8A
:100200001E021C0C120C3E0A040C123E1E040214A8
:10021000160A020F120E101E0E100E1E081E120CD1
:100220001226281E322A26041E21001F00211E0429
:100230000102013F213FF6E8DBCFC3B8AEA49B9299
:100240008A827B746E68625C57524E4945413E3AE1
:100250003734312E2C29272523211F1D1C1A19174D
:10026000161514131211100F0E0D0C0B0A090807A6
:10027000064500680100000500380168010000879C
:100280000283020101FF030101F7030A4E6F2053AD
:10029000442063617264206F720A6E6F204C4F417C
:1002A0004445522E4845580A0A153A457869740063
:1002B0001D20466C617368696E670A20206C6F614F
:1002C0006465722E2E2E0A0A444F4E275420545530
:1002D000524E204F464621000A0A153A49676E6F72
:1002E0007265006D560A0A504C45415345205455DD
:1002F000524E204F464620004C4F57204241545406
:100300004552592120001753440016137800161344
:1003100014001510200015201000540A03E18186F6
:100320007F3E186D830F0F0E0183866033186DC3F7
:10033000198F1803C38E6033186DE330CF1803C3D1
:100340009E603630CDE360CF3006C79E7E3E30CD16
:10035000B360CF300CC6F6603330D9B660CF33CF40
:10036000CCF66061B0DB1E60CF30D86CE6C061B007
:10037000DB1E618F19986CC6C063B19B0E330F0FE3
:10038000B078C6FF7E1F1B061E0F050089300802CD
:1003900038024978681400000000000800020100DB
:1003A0000003040700000000000000000102040830
:1003B00010204080010204081020010204081020CF
:1003C00004040404040404040202020202020303FB
:1003D000030303030000000023002600290000009F
:1003E0000000250028002B0000000000240027004A
:1003F0002A00690411241FBECFEFD8E0DEBFCDBFB5
:1004000011E0A0E0B1E0ECEBF4E302C005900D9246
:10041000AC32B107D9F713E0ACE2B1E001C01D92F4
:10042000AD3DB107E1F711E0CAEFD1E004C021977B
:10043000FE010E94E319C93FD107C9F70E94C11705
:100440000C945C1A0C940000ECE2F1E088EF9FEF52
:10045000918380838EE190E0978386838CE390E0A4
:10046000958784878EE090E097878687918780873D
:100470009383828386E491E00E94FE0B61E770E043
:1004800086E491E00C94810B41E063E080E591E02B
:100490000E94AA0D882339F08091060190910701EE
:1004A0008C319105CCF041E061E080E591E00E9463
:1004B000AA0D882339F080910601909107018D30B3
:1004C000910584F422EA30E0409106016091080130
:1004D00084E991E00C9409110296909307018093AE
:1004E0000601E1CF02979093070180930601EACFBE
:1004F0000F9304E224E544E260E084E991E00E9485
:10050000100F0CE024E54CE060E084E991E00E94EB
:10051000100F109245011092440180914401909176
:100520004501209142013091430185309105CCF481
:10053000A901485F5F4F60910401489F600D11243D
:10054000260F08E148E184E991E00E94100F8091B4
:100550004401909145010196909345018093440197
:10056000DCCF8091040190910501029790930501E1
:10057000809304014CEF5FEFBA01621B730B861787
:10058000970734F482E090E0909305018093040192
:100590000F9108958F929F92AF92BF92CF92DF9268
:1005A000EF92FF920F931F93CF93DF931092450129
:1005B00010924401C6E0AA24A394B12C54E5852EE0
:1005C000912CDCE0809144019091450183309105AC
:1005D0000CF019C1C89FF001C99FF00D1124E45D12
:1005E000FE4F848195818130910509F46CC074F5CA
:1005F000892B09F0BEC0428160817181625071090E
:100600007183608324E830E084E991E00E9409115D
:100610008091440190914501E0900601F09007011E
:100620000091080110910901C89FF001C99FF00DC8
:100630001124E45DFE4F428153816081718132EA71
:10064000C32E30E0D32E24E830E031C08230910553
:1006500009F464C0039709F08CC042816081718104
:1006600062507109718360832AE730E084E991E088
:100670000E9409118091440190914501E09006018A
:10068000F09007010091080110910901C89FF00145
:10069000C99FF00D1124E45DFE4F428153816081BA
:1006A000718182EAC82E80E0D82E2AE730E086E405
:1006B00091E00E948A0C882309F45BC0B09241014A
:1006C000A092400156C042816081718162507109DF
:1006D000718360832EE830E084E991E00E94091183
:1006E0008091440190914501E0900601F09007014E
:1006F0000091080110910901C89FF001C99FF00DF8
:100700001124E45DFE4F428153816081718122EAB0
:10071000C22E20E0D22E2EE830E0C9CF4281608187
:100720007181625071097183608328E930E084E946
:1007300091E00E9409118091440190914501E0905F
:100740000601F09007010091080110910901C89F6E
:10075000F001C99FF00D1124E45DFE4F42815381E9
:100760006081718192EAC92E90E0D92E28E930E0AB
:100770009ECF8091440190914501C89F8001C99FFF
:10078000100D1124045D1E4FF80180819181893F75
:100790009F4F7CF580913E0190913F01019690938F
:1007A0003F0180933E01F8019182808262E070E017
:1007B00080E090E00E94D017D69F9001D79F300D27
:1007C0001124C9010E96F80193838283009144019C
:1007D0001091450164E070E080E090E00E94D01745
:1007E000C09FF001C19FF00D1124E45DFE4F7583A1
:1007F0006483809144019091450101969093450155
:1008000080934401DFCEDF91CF911F910F91FF9034
:10081000EF90DF90CF90BF90AF909F908F90089512
:1008200086E491E00E944609882309F451C0809132
:10083000400190914101892B39F40E9478020E9475
:1008400044020E94CA021BC021E048E062E28BE63B
:1008500091E00E942D0584E991E00E943F0E6CE03A
:1008600071E084E991E00E94D61660913E0170919A
:100870003F014AE050E084E991E00E94A51766E05C
:1008800080E591E00E94A10D882311F18CE190E0B8
:1008900090930701809306018EE090E090933B01D6
:1008A00080933A01909335018093340190932F0106
:1008B00080932E01109241011092400110923F014D
:1008C00010923E0168E670E086E491E00C94810BA2
:1008D0000895109297011092960187E291E090930B
:1008E000950180939401209104013091050185E1E7
:1008F00090E0821B930B9093430180934201ECE2C2
:10090000F1E01182108213821282158214823696CF
:1009100081E0EE33F807A9F7089550E0DA01AA0F55
:10092000BB1FA80FB91F1F963C911F9750962C9183
:100930005097E32FF22FE60FF11DE60FF11D6591A1
:10094000749190967C936E935F97FB0125913491FF
:10095000FC013481329F202D1124DC01A40FB51F2E
:1009600091962C939197FB0185919491E92FF0E05A
:10097000822F90E0E817F90720F4FB01859194910C
:10098000292F239F202D112492962C93089521E046
:10099000FC01248324E020A72FE732E0308B278757
:1009A00040E060E00E948D0461E070E083E00E941E
:1009B0007B14E1EBF0E08081887F81608083F89494
:1009C00010928000E1E8F0E0108210928500109211
:1009D000840088E191E09093890080938800808171
:1009E00088608083808181608083EFE6F0E0808191
:1009F00082608083789408950F93FC01942F0111F5
:100A00002AC06230D9F050F4662399F0613019F5AC
:100A100040E0692FCF010F910C948D046330A9F051
:100A20006430C9F46481469F902D1124958F268FE0
:100A300012C04B3008F09AE0968B0DC06481469F3F
:100A4000902D1124918F228F06C06481469F902D96
:100A50001124938F248F0F910895FC0121110EC052
:100A6000648B8481489F402D1124458B15A214A2CC
:100A700013A281E0878B8093D101108E089580911D
:100A8000D101882319F08091CE0101C080E08093CC
:100A9000B4000895FC0161110DC0178A158A14A2D3
:100AA00013A2108E1092CE011092CF011092D1019C
:100AB0000C943F050895CF93DF93611104C0EC01BE
:100AC0000E944A051982DF91CF9108950F931F93D9
:100AD000CF93DF93411110C08B01EC0160E00E94C5
:100AE0005B051E870D871B8A1A8A81E0898389E04E
:100AF0008E8B198E1B8E1D8EDF91CF911F910F91C2
:100B00000895CF93DF93DC01611131C08C9188236C
:100B100071F111968C911197811129C019968C91C0
:100B2000199717962C91179718969C911897E22F62
:100B3000F92FE80FF11DE80FF11D259134912F3F9A
:100B40008FEF380711F41C9212C0ED013C87332758
:100B5000220F331FEA85FB85E20FF31F6591749125
:100B600040E0CD010E94660589858F5F8987DF910E
:100B7000CF91089560E00C94810560E00C945B05D2
:100B80000F93CF93DF93EC0161115CC089818823BF
:100B900009F458C08D89811155C02D853E85EA899B
:100BA000FB89EE0FFF1FE20FF31F859194910097D1
:100BB000D1F48989882321F01B8A1A8AF90111C08E
:100BC0001982888160E0882331F0CE010E9481057E
:100BD000EA89FB8925C0CE01DF91CF910F910C945A
:100BE0004A0585919491BC017695679576956795B0
:100BF00080FF1DC0AC0176E0569547957A95E1F7E8
:100C0000292F26952695269520514F716F7000E06B
:100C1000CE010E94FC04EA89FB893196FB8BEA8BAA
:100C2000EE0FFF1F8D859E85E80FF91FDACF492F44
:100C30006F7320E0CE010E942D058A899B89019661
:100C40009B8B8A8BDF91CF910F91089560E00C947C
:100C5000C005CF93DF93EC016111BBC08F8988235E
:100C600009F4B7C09D89911105C0CE01DF91CF91E4
:100C70000C944A0591509D8B8DA1811139C02BA1F7
:100C80003CA12F5F3F4FC901880F991FEF8DF8A13D
:100C9000E80FF91F65917491862F87708EA3AB01C1
:100CA00063E0569547956A95E1F7CA019695879551
:100CB000972F969596959FA38F739C81899F802DE2
:100CC00011248DA341704093CD013CA32BA389A196
:100CD00090E02817390760F02AA1222329F0821B0F
:100CE00091099CA38BA304C060E0CE010E944A0539
:100CF0008DA181508DA3888D21E0280F288F4C89EC
:100D00003FA1340F8C85380F3A836B8D662361F0D9
:100D100070E0822F992787FD90950E9483198C8D12
:100D2000869F300D11243A838A8190E0CB966BE345
:100D300070E00E9483198A833E893B83698D662314
:100D400071F0772767FD7095822F992787FD909521
:100D50000E9483198A8D869F300D11243B836D8DEF
:100D6000662391F0822F992787FD909570E00E946D
:100D70008319CB0162E070E00E9483192E8D9B8164
:100D8000289F900D11249B838B814F3339F08A303B
:100D90000CF089E087FD80E08B8301C01B82F89412
:100DA000EA81F0E0EA5CFD4FE491E093D00188A590
:100DB0009D81899F802D11249B81899F802D1124E5
:100DC0009EA1899F802D11248093CF018093CE0115
:100DD0007894DF91CF91089560E00C94290660919A
:100DE000CF01662321F18091D2018F5F8093D201E0
:100DF0009091D0018917D8F09091D10181E0892795
:100E00008093D1011092D2018091CD01882369F0A5
:100E100080910A0193E4899F802D1124895B80933E
:100E20000A010E9463199093CE010C943F05089526
:100E30001F920F920FB60F9211242F933F934F934F
:100E40005F936F937F938F939F93AF93BF93EF9332
:100E5000FF930E94EF06FF91EF91BF91AF919F9199
:100E60008F917F916F915F914F913F912F910F9053
:100E70000FBE0F901F901895CF93DF93EC0160E0A9
:100E80000E945B0587E792E09E878D871B8A1A8AFE
:100E900081E0898389E08E8B198E1B8E1D8EDF91F8
:100EA000CF910895CF93DF93EC0160E00E945B0542
:100EB00081E792E09E878D871B8A1A8A81E0898369
:100EC00089E08E8B198E1B8E1D8EDF91CF91089538
:100ED000FC01262F332727FD30959681692F70E07E
:100EE0006F5F7F4FC9010E94831985830895FC01BC
:100EF0008CE39FE09383828384E0818381E0848715
:100F00000895CF93DF93FC0124813581232B81F158
:100F1000EC0184858F7149F584E10E945E14BC0167
:100F2000882777FD8095982F0E94641826EE3FE36E
:100F30004EEC50E40E94F0180E9436189B017B830F
:100F40006A83672B81F084E08983FE01349680E018
:100F5000419151912417350710F4898309C08F5F9F
:100F60008430B1F702C08FEF89838C858F5F8C87C7
:100F7000DF91CF91089521E0FC012083089570E076
:100F800085E00C947B14AF92BF92CF92DF92EF92E8
:100F9000FF920F931F93CF93DF93EC0189819A8186
:100FA0002FE0289F8001299F100D112485E10E94C8
:100FB0005E14800F911F24E0969587952A95E1F79E
:100FC0009A8389832881222391F1EC81AD80B12C11
:100FD000C12CD12CA885B9857D0100E010E06E817F
:100FE0007F819B0140E050E08617970728F0BC0105
:100FF000A817B90708F4BD0180E090E01F921F9286
:101000001F92EF930E94F4176B830F900F900F9035
:101010000F9070E085E0DF91CF911F910F91FF90CD
:10102000EF90DF90CF90BF90AF900C947B14DF9146
:10103000CF911F910F91FF90EF90DF90CF90BF90D5
:10104000AF9008958F929F92AF92BF92CF92DF920E
:10105000EF92FF920F931F93CF93DF93EC015C010C
:1010600086E8A80EB11CD5019C91992309F44DC0C6
:101070009C3018F41CE0191B01C010E0FE01EA5A74
:10108000FF4F81E080836E01BEE4CB0ED11C60E097
:10109000C6010E94990E4E01E3E58E0E911CD4010B
:1010A0008C9103E0080F9DE2F92E4F2D481B410F54
:1010B00023E0E22E24E560E0C6010E94CC1061E04E
:1010C000C6010E94990EF401808103E0080F4F2DA4
:1010D000481B410F24E560E0C6010E946C10FE0130
:1010E000E95AFF4F84E080833196D4018C91181B1C
:1010F000115D1083CC57DF4F68817981C6010E9452
:10110000B316F501808181508083DF91CF911F91CB
:101110000F91FF90EF90DF90CF90BF90AF909F9096
:101120008F900895CF92DF92FF920F931F93CF93EA
:10113000DF93FC01248D358D232B09F49FC0EC0136
:101140008C01025B1F4F40E061E0C8010E949D0ED0
:10115000FE01E95AFF4FDE01AE5ABF4F9C9185E573
:10116000891B808331961082698D613009F463C0D8
:1011700028F0888D653008F074C06FC0CE01859668
:101180000E94BD0581E0FE01EA5AFF4F808364EBB7
:1011900070E0C8010E947A121D8E1C8EFE01EC5A6E
:1011A000FF4F108288EAF82E6E01FAE0CF0ED11CB4
:1011B000CE010E9446098823D9F368EF72E0C80186
:1011C0000E94B3166A8D7B8D4AE050E0C8010E94F0
:1011D000BA1763EE72E0C8010E94B3166F2D6295D4
:1011E0006F7070E04AE050E0C8010E94A51768EDFA
:1011F00072E0C8010E94B31664E0C6010E94A10D0E
:1012000081113CC0FA94F110D3CF60E0CE010E946E
:10121000BF0793B7917F946093BF83B7816083BF0B
:1012200083B7816083BF889583B78E7F83BF83B781
:101230008E7F83BFBDCFCF58DF4F88819981AA8130
:10124000BB818F709927AA27BB270897A105B105F5
:1012500010F467E009C068E707C0882379F06B5F86
:1012600003C0882359F06FE2C801DF91CF911F912D
:101270000F91FF90DF90CF900C94D816DF91CF9113
:101280001F910F91FF90DF90CF9008958F929F92C2
:10129000AF92BF92CF92DF92EF92FF920F931F9384
:1012A000CF93DF93EC017C0180E8E80EF11CF7019D
:1012B00080809180A280B3800E94E215861A970AEE
:1012C000A80AB90A6E01FFE7CF0ED11CF601808192
:1012D00090E0A0E0B0E08E0105581F4F88159905F9
:1012E000AA05BB0550F4F80180819181A281B381E8
:1012F000892B8A2B8B2B09F040C0F80180819181CA
:10130000A281B381892B8A2B8B2BA9F57E01F5E273
:10131000EF0EF11CC7010E94BA05C7010E94260604
:10132000C7010E94EC06CE010E942208CE010E9455
:1013300092087E018EE4E80EF11CC7010E94500E57
:10134000FE01EC5AFF4F8081811103C0C7010E944A
:101350003F0E0E94EE15F8016083718382839383B0
:10136000FE01EB58FF4FC958DF4F28813981621BBE
:10137000730B7183608380E037C00E94E215F60131
:101380002081DC01CB01820F911DA11DB11DF70150
:1013900080839183A283B383FE01EF58FF4F808146
:1013A0009181A281B3810196A11DB11D808391839A
:1013B000A283B383F80110821182128213820E94E9
:1013C000EE15FE01E958FF4F60837183828393839A
:1013D000CE010E94C307CE010A960E94690DCE017C
:1013E00048960E94810781E0DF91CF911F910F9174
:1013F000FF90EF90DF90CF90BF90AF909F908F9035
:1014000008950F931F93CF93DF93EC018C01025B40
:101410001F4FC8010E943F0E60EB72E0C8010E949E
:10142000B316C8010E94500E8CB583608CBD8DB57B
:101430008E7F8DBD8CE191E0EEEFFFE30995FE011B
:10144000EC5AFF4F10826BE872E0C8010E94F3165D
:10145000C8010E94500E2A96CE010E94690D64E0D8
:10146000CE010E94A10D811107C062E370E080E00F
:1014700090E00E941316F0CFDF91CF911F910F9152
:1014800008952F923F924F925F926F927F928F9228
:101490009F92AF92BF92CF92DF92EF92FF920F9303
:1014A0001F93CF93DF93CDB7DEB72A970FB6F8948B
:1014B000DEBF0FBECDBF3C0120E7620E711CF30101
:1014C0002081222309F404C15A011B019A878987CC
:1014D0007A9781E08083E985FA85EB5AFF4F108285
:1014E000E985FA85EC5AFF4F1082E985FA85108E5E
:1014F0008F01025B1F4F61E0C8010E94990EF1014C
:10150000F491FF83C984DA8427E5C20ED11CE984F3
:10151000FA8488E5E80EF11CE985FA85EE5AFF4F5A
:10152000FA83E98389859A858F589F4F9E838D839F
:10153000E985FA85ED5AFF4FFC83EB8389849A8411
:10154000FAE08F0E911C49845A8425E2420E511C08
:1015500089859A850E9446098823D1F38F81882343
:1015600021F0EB81FC81508101C050E02AE133E0A1
:1015700040E060E0C80158870E9409115885A11415
:10158000B10439F04CE0450F950160E0C8010E94BC
:101590000911F60110828CE0F7018083B101C801C6
:1015A0000E94B316E981FA818081982F990F890FE3
:1015B00081958D5AF6018083EB81FC818081982F83
:1015C000990F890F8195835DF7018083ED81FE81FD
:1015D000808184FF03C066E173E002C062E173E0D2
:1015E000C8010E94F316E981FA818081982F990F32
:1015F000890F81958D5AF6018083F70180818F5F75
:101600008083E985FA8582A5882319F06EE073E06E
:1016100002C06AE073E0C8010E94F316E981FA8112
:101620008081982F990F890F81958D5AF6018083BB
:10163000F70180818F5F808366E073E0C8010E94BC
:10164000F31665E0C4010E94A10D882351F0E985DD
:10165000FA8562A56F5FC2010E946807C2010E94FD
:10166000520764E0C4010E94A10D81111FC0F30163
:101670002081422F50E060E070E0ED81FE818081AA
:101680009181A281B38184179507A607B70710F04F
:101690002F3F61F466E0C4010E94A10D882309F484
:1016A00057CF89859A850E94010A42CF8FEFF301B7
:1016B000808309851A850B5D1F4F60E0C8010E9479
:1016C0005B05C8010E943C0781E0E985FA85808FAF
:1016D0002A960FB6F894DEBF0FBECDBFDF91CF9133
:1016E0001F910F91FF90EF90DF90CF90BF90AF9040
:1016F0009F908F907F906F905F904F903F902F9032
:10170000089540E050E00C94410AE0E8F7E72591A5
:10171000349181E02130304C09F080E00895CF937E
:10172000DF93EC010E94850B9E01275A3F4FDE019B
:10173000A059BF4F882309F43CC0E6E9F7E784913C
:10174000F9018083E7E9F7E7E491EC83E8E9F7E75B
:10175000E491ED83E9E9F7E7859194919F838E8386
:10176000EBE9F7E78591949199878887EDE9F7E7A9
:10177000E491EBA7EEE9F7E7E491EAA7EFE9F7E7F1
:10178000E491EC93E0EAF7E7859194919D8F8C8F3B
:10179000E2EAF7E7859194919F8F8E8FE4EAF7E76D
:1017A0008591949199A388A3E6EAF7E785919491AE
:1017B00020C08CE3F90180831C828FEF8D8320E2AF
:1017C00033E03F832E8324ED33E03987288791E08F
:1017D0009BA79AA78C938CEA9DE09D8F8C8F8EEDB2
:1017E0009DE09F8F8E8F84E79EE099A388A38CE372
:1017F0009FE09BA38AA3DF91CF910895CF92DF92C0
:10180000EF920F93CF93DF93EC01FC01E158FF4F70
:1018100082E38083349781E090E0A0E0B0E08083B1
:101820009183A283B3833B978FEF8083CE010E9485
:101830008F0BCE010E94BB076FEFCE010E94BF0746
:101840006E018AE0C80ED11CC6010E94590DC60166
:101850000E94690DCE0148960E9477078EE0E82E1F
:101860000FE020E14BE06DE0CE01825B9F4F0E94D4
:101870008E12A596CE010E94C70465E0C6010E94A3
:10188000A10D882351F060E0CE01DF91CF910F913F
:10189000EF90DF90CF900C94680740E06AE873E027
:1018A000CE01DF91CF910F91EF90DF90CF900C940C
:1018B00066058F929F92AF92BF92CF92DF92EF9286
:1018C000FF920F931F93CF93DF93CDB7DEB7260F11
:1018D000371FE216F30684F4EA0CFB1C6E157F0535
:1018E0005CF4040F151FC016D10634F48C0C9D1C3B
:1018F00081E0481559050CF080E0DF91CF911F91F0
:101900000F91FF90EF90DF90CF90BF90AF909F909E
:101910008F9008952F923F924F925F926F927F9295
:101920008F929F92AF92BF92CF92DF92EF92FF92EF
:101930000F931F93CF93DF93CDB7DEB760970FB6AA
:10194000F894DEBF0FBECDBF9E878D873B01588BBD
:101950004F8738872F8318012701DA86C986F90156
:101960008491282F30E03A8329833196E4916E2FB9
:1019700070E07C836B83F6018491282F30E03E83F6
:101980002D833196E4916E2F70E07C876B874B013D
:101990005901670178010B811C8129813A81B301CA
:1019A0008D859E850E94590C811102C080E068C01F
:1019B0006214730424F4A1014619570902C040E0DF
:1019C00050E08F8598898415950524F49201281B91
:1019D000390B02C020E030E08D819E81820D931D85
:1019E00069817A81660D771D681779072CF0DC0113
:1019F000A619B709BA83A983EB85FC85E40DF51D0B
:101A00008B819C816F857889860F971F8E179F0722
:101A10002CF0CF01861B970B9C838B83722E542E48
:101A20000D851E85025B1F4F3F8434186218872D79
:101A300090E0EB81FC818E179F070CF0B7CF252C2F
:101A4000432C470C822D90E0A981BA818A179B070D
:101A5000ACF4272D422D6F817885C8010E944B126E
:101A6000882351F0242D462D420D69857A85C801C1
:101A70000E944B12811104C02394E4CF7394D7CFFA
:101A800060960FB6F894DEBF0FBECDBFDF91CF9149
:101A90001F910F91FF90EF90DF90CF90BF90AF908C
:101AA0009F908F907F906F905F904F903F902F907E
:101AB0000895FC0188E0808389E0818387E0828348
:101AC00086E0838384E0848382E0858381E186836A
:101AD0000895DF92EF92FF920F931F93CF93DF93BE
:101AE000EC017C0187E0E80EF11C8701DD24DA942B
:101AF00062E088810E94031588810E946F15F801B9
:101B0000892B21F480818F5F808309C080818823A5
:101B100051F08F3F11F4108202C0F801D08260E0D2
:101B200088810E94031521960F5F1F4FCE15DF0598
:101B3000F9F6DF91CF911F910F91FF90EF90DF9019
:101B40000895FC01E60FF11D81E09781913009F0C5
:101B500080E00895FC01262F30E0E20FF31F4230B1
:101B600030F49781915081E09E3F58F009C0878101
:101B70008F3F31F0642F0E94631981E0913009F0AA
:101B800080E008958EBD00000DB407FEFDCF8EB538
:101B90000895FC01643508F053C0403308F050C08C
:101BA00090A1742F759575957595262F332727FD70
:101BB0003095542F57709230A1F4F901ED52FE4F39
:101BC00084E57802E00DF11D1124808190E0052E5E
:101BD00002C0959587950A94E2F78095982F9170A9
:101BE0000AC0933041F48485817046274095417046
:101BF000841303C014C0911112C084E57802200D33
:101C0000311D1124F901ED52FE4F81E090E001C039
:101C1000880F5A95EAF780959081892310C084E552
:101C20007802200D311D1124F901ED52FE4F81E0A3
:101C300090E001C0880F5A95EAF79081892B808344
:101C400008951F93CF93DF93EC01162FF89460E073
:101C50008F850E943F15888918161CF460E00E9449
:101C60003F15812F0E94C20D888918161CF461E06F
:101C70000E943F157894DF91CF911F91089528EF2E
:101C800031E0E3EDF1E0DF01A9011D924150504048
:101C9000E1F7DC0119961C9219971A961C92089587
:101CA000CF92DF92EF92FF921F93CF93DF93EC01DD
:101CB0008C858F5F8C8783EDC82E81E0D82E10E055
:101CC000612F6064CE010E94210E60E8CE010E9467
:101CD000210E61E08F850E943F15888918161CF43B
:101CE00060E00E943F15E12CF12CF601EE0DFF1D86
:101CF00080810E94C20D8FEFE81AF80A84E5E81689
:101D0000F10499F7888918161CF461E00E943F15C8
:101D10001F5F84E5C80ED11C163091F660E4CE0139
:101D2000DF91CF911F91FF90EF90DF90CF900C94B7
:101D3000210EFC0160A361A30895FC0160A341A3EF
:101D40000895DF92EF92FF920F931F93CF93DF934B
:101D50001F92CDB7DEB78C01D62EF42EE12CE21601
:101D600054F44E2D4F0D6D2DC80129830E94C90DCD
:101D7000E3942981F4CF0F90DF91CF911F910F91C0
:101D8000FF90EF90DF900895DF92EF92FF920F9314
:101D90001F93CF93DF931F92CDB7DEB78C01D62E62
:101DA000F42EE12CE21654F46E2D6D0D4F2DC8016A
:101DB00029830E94C90DE3942981F4CF0F90DF910C
:101DC000CF911F910F91FF90EF90DF900895DF92D8
:101DD000EF92FF920F931F93CF93DF937C01D62F47
:101DE000D22EC42F112707FD1095040F111D47FD9A
:101DF0001A954C2F552747FD50954017510744F42D
:101E00002D2D4C2F6D2FC7010E94C40ECF5FF1CF37
:101E1000DF91CF911F910F91FF90EF90DF90089588
:101E2000AF92BF92CF92DF92EF92FF920F931F93E8
:101E3000CF93DF936C01C62FD42F122F202F33277F
:101E400027FD3095241B310947FD339537FF03C02B
:101E5000319521953109812F992787FD90958C1B0C
:101E60009109C7FD939597FF03C0919581959109BD
:101E7000BB24B3948217930714F0B12C06C0812FB2
:101E8000102F082F8C2FCD2FD82F1C1734F48D2F07
:101E9000D02F082F8C2FC12F182FA12EAC1A202F36
:101EA000332727FD30952D1B3109D7FD339537FF9B
:101EB00003C0319521953109E22EFA2CA7FE03C00B
:101EC000FF24F394FA0CF594D01714F00FEF0FC021
:101ED00001E00DC0BB2071F04C2F6D2FC6010E9498
:101EE000C90DFE18F7FE02C0D00FFA0CCF5F1C1709
:101EF0008CF703C04D2F6C2FF1CFDF91CF911F9145
:101F00000F91FF90EF90DF90CF90BF90AF9008952A
:101F10008F929F92AF92BF92CF92DF92EF92FF92F9
:101F20000F931F93CF93DF937C01162FD42EC22FD4
:101F300081E0C82EC21AB22EB194BB0CD0E0802F23
:101F40008470A82E802F8270982E802F8870882E03
:101F50000170DC170CF04DC0C7FC04C0C150B39435
:101F6000B394CB0CDF5F8D2F880F8F5FC80EAA2034
:101F700071F04C2F4D0D6D2F610FC7010E94C90DDF
:101F80004D2F4D0D6C2F610FC7010E94C90D992077
:101F900071F04D2D4C1B6D2F610FC7010E94C90DB3
:101FA0004D2D4D1B6C2F610FC7010E94C90D88205C
:101FB00071F04D2F4D0D612F6C1BC7010E94C90D93
:101FC0004C2F4D0D612F6D1BC7010E94C90D0023C1
:101FD00009F4BFCF4D2D4D1B612F6C1BC7010E9413
:101FE000C90D4D2D4C1B612F6D1BC7010E94C90DE2
:101FF000B0CFDF91CF911F910F91FF90EF90DF90C5
:10200000CF90BF90AF909F908F9008958F929F92A6
:10201000AF92BF92CF92DF92EF92FF920F931F93F6
:10202000CF93DF936C01B62EA42EC22F11E0121BAA
:10203000F22EF194FF0CD1E0802F8170882E99242C
:1020400093949E0C02708FEF8D0F8C17C4F517FDC3
:1020500004C0C150F394F3941F0D8D2F880F8F5F30
:10206000180F882099F02C2F220F290D4A2D4C1B78
:102070006D2F6B0DC6010E94A10E23E02E0D4A2D7F
:102080004D1B6C2F6B0DC6010E94A10E002399F011
:102090002C2F220F290D4A2D4C1B6B2D6D1BC601B9
:1020A0000E94A10E23E02E0D4A2D4D1B6B2D6C1BA3
:1020B000C6010E94A10EDF5FE394E394C4CFDF91D9
:1020C000CF911F910F91FF90EF90DF90CF90BF9035
:1020D000AF909F908F9008959F92AF92BF92CF92B2
:1020E000DF92EF92FF920F931F93CF93DF936C01D8
:1020F000C62FD42FA22EBE2CB194BB0C9B2C920EBB
:10210000FE2CF60E292D6F2D0E94C40E1FEF100F0E
:102110001D0F292D412F6F2DC6010E94C40E0B0DDE
:10212000DE0D202F4D2F6C2FC6010E94A10ECA0D6F
:102130006FEF6C0F202F4D2FC6010E94A10E01E002
:102140002E2D4D2F6F2DC6010E94880F8E2D80954C
:10215000C80F02E02E2D4D2F6C2FC6010E94880F54
:10216000D12FDE1904E02E2D4D2F6C2FC6010E94B9
:10217000880F08E02E2D4D2F6F2DC6010E94880F6D
:10218000DF91CF911F910F91FF90EF90DF90CF9053
:10219000BF90AF909F9008959F92AF92BF92CF92C1
:1021A000DF92EF92FF920F931F93CF93DF936C0117
:1021B000A62EB42EF22EC02F1E2DDE2DD195DD0FB2
:1021C0009E2C960E2D2F2F0D692D0E94E70EC150CB
:1021D000CD0FDE2DDB0DAA94FA0C6F2D6E19EC2EAF
:1021E00001E0212F4D2FC6010E94061002E0212F91
:1021F0004D2F692DC6010E940610DF91CF911F91CE
:102200000F91FF90EF90DF90CF90BF90AF909F9095
:1022100008954F925F926F927F928F929F92AF92AA
:10222000BF92CF92DF92EF92FF920F931F93CF93C3
:10223000DF93F901C49031965491EC0108A1643503
:102240000CF018C1DD24C7FCD094A62FBB27A7FD36
:10225000B0957D01EC0CFD1C1E141F040CF00AC18E
:1022600040330CF007C1A52E842E992487FC90944E
:10227000F401E50FF11D57FDFA951E161F060CF02F
:10228000F9C02E5F3F4FE6012796D7FD279673E0F2
:10229000D595C7957A95E1F747FF0AC0A52EA40EFC
:1022A000C89DA001C99D500D1124241B350B40E091
:1022B000EA2DFF27E7FDF095E40FF11D47FDFA95A4
:1022C000F1971CF050E3A52EA41A67FD60E0F7011A
:1022D000E535F10514F0E4E5F0E07E2FFC01D4844F
:1022E000D426862F992787FD9095FC01EA1BFB0BCE
:1022F000DF017F01F7E0EF22FF24E0E8F0E002C019
:10230000F595E795EA94E2F71E2FB7FD179653E08F
:10231000B595A7955A95E1F72A0F3B1FE42FE77073
:1023200051E001C0550FEA95EAF745954595459569
:10233000B4E54B02800D911D11248D529E4FC12C8E
:10234000BB24A7FCB094992493942E015524EC2D22
:10235000F0E0EA15FB050CF08DC0F9014491013065
:10236000E1F47C01A12F862E881AB82DBE0DB71777
:1023700008F077C0B42FBA2321F0E701B881B52B5C
:10238000B883B0E0B595A795109719F431964491AC
:10239000A0E8DFEFED1AFD0AE8CF01111FC0752E8E
:1023A00070947C01A12FF901862E881AB82DBE0DDC
:1023B000B71708F056C0B42FBA2321F0E701B8814F
:1023C000B721B883B0E0B595A795109719F4319669
:1023D0004491A0E8DFEFED1AFD0AE8CF033031F0B9
:1023E0007C01A12FF901862E881A37C0752E7094B2
:1023F000862E7C01A12FF9018716D8F4B42FBA23B9
:1024000059F0E701B881682C6D2460FE02C0B52B3D
:1024100002C0B721E701B883B0E0B595A795109742
:1024200019F431964491A0E88394DFEFED1AFD0A88
:10243000E3CFD92416C0B42FBA2321F0E701B88125
:10244000B527B883B0E0B595A795109719F43196E4
:102450004491A0E8DFEFED1AFD0AB82DBE0DB717C5
:1024600050F3550F19F48C5A9F4F51E0C394240D2B
:10247000351D6DCFDF91CF911F910F91FF90EF90A0
:10248000DF90CF90BF90AF909F908F907F906F9094
:102490005F904F900895CF93DF93FB01C491842FF9
:1024A00090E033E0959587953A95E1F70296D0E074
:1024B000279653E0D595C7955A95E1F72C9FD00103
:1024C0002D9FB00D11248A0F9B1FE80FF91FE49177
:1024D000F0E0477060E870E002C0759567954A9536
:1024E000E2F7E623F72381E0EF2B09F480E0DF91A8
:1024F000CF910895DC01FB0184918F5F14968C933A
:1025000014973196E491EF5F1596EC9315976E5FF3
:102510007F4F5F967C936E935E970895EF920F9333
:10252000CF93DF93EC014E876D872F87E98A088B65
:1025300081E0888788A319A28F8364EB70E0CE01C5
:102540000E947A120E9428148CB58F7D8CBD8CB5A8
:102550008C7F81608CBD8DB581608DBD8CB58C60AC
:102560008CBD61E08E850E94031561E08D850E941F
:10257000031561E08F850E940315898918161CF4E4
:1025800061E00E940315888918161CF461E00E941E
:102590000315898918166CF460E00E943F156AE003
:1025A00070E080E090E00E94131661E089890E944B
:1025B0003F158D85992787FD9095FC01E054FC4FD0
:1025C000E491F0E0EE0FFF1FE252FC4F25913491B1
:1025D0003D8B2C8BFC01E455FC4FE491EB8F8E85F9
:1025E000992787FD9095FC01E054FC4FE491F0E0C1
:1025F000EE0FFF1FE252FC4F259134913B8B2A8B4B
:10260000FC01E455FC4FE491EA8F8889992787FD06
:102610009095FC01E054FC4FE491F0E0EE0FFF1FB9
:10262000E252FC4F259134913F8B2E8BFC01E455F7
:10263000FC4FE491EC8F8F85992787FD9095FC01E5
:10264000E054FC4FE491F0E0EE0FFF1FE252FC4F2C
:1026500025913491398F288FFC01E455FC4FE4918A
:10266000ED8F61E2CE010E94210E64E1CE010E9455
:10267000210E8B8587FF02C08FE78B876B85606893
:10268000CE010E94210E60E2CE010E94210E6CE07C
:10269000CE010E94210ECE01DF91CF910F91EF90DC
:1026A0000C94500E6F927F928F929F92AF92BF9236
:1026B000CF92DF92EF92FF920F931F93CF93DF930E
:1026C000EC0188A064350CF080C040330CF07DC074
:1026D000EC81F0E031970E9FC0010F9F900D112407
:1026E000860F911D67FD9A95181619060CF06DC09E
:1026F000ED81E09FF0011124E40FF11D47FDFA95F3
:102700001E161F060CF061C0102FE42EF62EB62EFA
:10271000962EC22ED12CEB2DEF19FF27E7FDF09559
:102720008C8190E0E817F9070CF04EC00197E8178C
:10273000F90779F0C89E9001C99E300DD89E300DE2
:102740001124E20FF31F8E8D9F8DE80FF91F7490F7
:1027500001C0712CAE2C6E2C2A2D2E19332727FD8B
:1027600030958D8190E0281739075CF570FE10C018
:10277000113031F44A2D6B2DCE010E94C90D1DC0C0
:10278000012F212F462D692DCE010E94E70E15C085
:1027900089A198A1891789F088A3113031F44A2DB5
:1027A0006B2DCE010E94C90D07C0012F212F462D90
:1027B000692DCE010E94E70E88A27694610EA39443
:1027C000CBCF910EB394A7CF88A2DF91CF911F9169
:1027D0000F91FF90EF90DF90CF90BF90AF909F90C0
:1027E0008F907F906F9008950F93CF93DF93EC01BC
:1027F0006A3019F42D8198851FC06D3019F1262F8C
:1028000008854A8569850E94521328853C818985FF
:10281000329F800D112489879F81992399F09927F0
:1028200087FD909544E550E0239F401951091124FC
:10283000481759073CF49D818A85299F800D1124F2
:102840008A87198681E090E0DF91CF910F910895FA
:10285000CF93CFB7F8948091D303811127C0EAECCE
:10286000F3E08491E6EBF3E09491E82FF0E0EE0FD3
:10287000FF1FE851FC4FA591B491EC91E92321F49D
:1028800061E08AE00E943F1561E08AE00E94031542
:102890008CB580618CBD8CB580648CBD61E08DE0B1
:1028A0000E94031561E08BE00E9403158091D30321
:1028B0008F5F8093D303CFBFCF9108958E3008F000
:1028C0008E50877020910B0190E4299F9001112474
:1028D000822B80937C0080917A00806480937A00C0
:1028E00080917A0086FDFCCF80917800209179005C
:1028F00090E0922B08951F93CF93DF93182FEB0155
:1029000061E00E940315209711F460E004C0CF3FFE
:10291000D10539F461E0812FDF91CF911F910C94A3
:102920003F15E12FF0E0E856FC4FE491E330F9F079
:1029300048F4E130B9F0E230A1F584B5806284BD9D
:10294000C8BD34C0E730E9F0E83019F1E43049F5AA
:1029500080918000806280938000D0938B00C09330
:102960008A0024C084B5806884BDC7BD1FC0809123
:102970008000806880938000D0938900C093880095
:1029800015C08091B00080688093B000C093B30000
:102990000DC08091B00080628093B000C093B400FD
:1029A00005C0C038D1050CF0B5CFAFCFDF91CF91C6
:1029B0001F910895833081F028F4813099F082309E
:1029C000A1F008958730A9F08830B9F08430D1F4AF
:1029D000809180008F7D03C0809180008F778093ED
:1029E0008000089584B58F7702C084B58F7D84BD43
:1029F00008958091B0008F7703C08091B0008F7DE3
:102A00008093B0000895CF93DF9390E0FC01E455EC
:102A1000FC4F2491FC01E054FC4F8491882361F128
:102A200090E0880F991FFC01E851FC4FC591D491AB
:102A3000FC01E252FC4FA591B491611109C09FB70E
:102A4000F8948881209582238883EC912E230BC0F3
:102A5000623061F49FB7F8943881822F8095832388
:102A60008883EC912E2B2C939FBF06C08FB7F894D0
:102A7000E8812E2B28838FBFDF91CF9108951F937C
:102A8000CF93DF93282F30E0F901E856FC4F849173
:102A9000F901E455FC4FD491F901E054FC4FC49185
:102AA000CC23C9F0162F81110E94DA14EC2FF0E02C
:102AB000EE0FFF1FE252FC4FA591B4918FB7F8942F
:102AC000111105C09C91ED2FE095E92302C0EC9116
:102AD000ED2BEC938FBFDF91CF911F910895CF9392
:102AE000DF93282F30E0F901E856FC4F8491F9017B
:102AF000E455FC4FD491F901E054FC4FC491CC2330
:102B000091F081110E94DA14EC2FF0E0EE0FFF1F1C
:102B1000EC52FC4FA591B491EC91ED2381E090E053
:102B200021F480E002C080E090E0DF91CF91089531
:102B30001F920F920FB60F9211242F933F938F93F2
:102B40009F93AF93BF938091D5039091D603A091AB
:102B5000D703B091D8033091D40323E0230F2D374E
:102B600020F40196A11DB11D05C026E8230F029691
:102B7000A11DB11D2093D4038093D5039093D60358
:102B8000A093D703B093D8038091D9039091DA032F
:102B9000A091DB03B091DC030196A11DB11D8093D0
:102BA000D9039093DA03A093DB03B093DC03BF91C6
:102BB000AF919F918F913F912F910F900FBE0F90EA
:102BC0001F9018952FB7F8946091D5037091D60394
:102BD0008091D7039091D8032FBF08953FB7F89401
:102BE0008091D9039091DA03A091DB03B091DC03CB
:102BF00026B5A89B05C02F3F19F00196A11DB11D58
:102C00003FBFBA2FA92F982F8827820F911DA11D92
:102C1000B11DBC01CD0142E0660F771F881F991FCF
:102C20004A95D1F70895CF92DF92EF92FF92CF931A
:102C3000DF936B017C010E94EE15EB01C114D104FE
:102C4000E104F10489F00E9435180E94EE156C1B16
:102C50007D0B683E734090F381E0C81AD108E1080B
:102C6000F108C851DC4FEACFDF91CF91FF90EF9090
:102C7000DF90CF900895789484B5826084BD84B548
:102C8000816084BD85B5826085BD85B5816085BD67
:102C9000EEE6F0E0808181608083E1E8F0E0108280
:102CA000808182608083808181608083E0E8F0E0C1
:102CB000808181608083E1EBF0E0808184608083AB
:102CC000E0EBF0E0808181608083EAE7F0E08081E2
:102CD0008460808380818260808380818160808342
:102CE0008081806880831092C1000895CF92DF9226
:102CF000EF92FF920F931F93CF93DF936C01EB0141
:102D00007B01E40EF51E00E010E0CE15DF0561F05A
:102D10006991D601ED91FC910190F081E02DC60101
:102D20000995080F191FF1CFC801DF91CF911F91AD
:102D30000F91FF90EF90DF90CF900895611571058E
:102D400079F0FB0101900020E9F73197AF01461BB4
:102D5000570BDC01ED91FC910280F381E02D099489
:102D600080E090E00895EF92FF920F931F93CF932E
:102D7000DF937C01FB0100E010E06491EF012196FC
:102D8000662361F0D701ED91FC910190F081E02D77
:102D9000C7010995080F191FFE01EFCFC801DF9188
:102DA000CF911F910F91FF90EF9008950C949E1674
:102DB000DC01ED91FC910190F081E02D09940F93DD
:102DC0001F93CF93DF93EC016DE00E94D8168C0126
:102DD0006AE0CE010E94D816800F911FDF91CF913B
:102DE0001F910F9108950F931F93CF93DF93EC01E1
:102DF0000E94B3168C01CE010E94DF16800F911F36
:102E0000DF91CF911F910F9108958F929F92AF9272
:102E1000BF92CF92DF92EF92FF920F931F93CF93C7
:102E2000DF93CDB7DEB7A1970FB6F894DEBF0FBE24
:102E3000CDBF6C01142FE52FCB01022F19A2223038
:102E400008F40AE07E0121E2E20EF11C802E912CB2
:102E5000A12CB12C612F7E2FA50194010E949719FE
:102E6000029F1019112481E0E81AF1081A3014F4B5
:102E7000105D01C0195CF7011083122FE32FCA0106
:102E8000232B242B252B31F7B701C6010E949E1658
:102E9000A1960FB6F894DEBF0FBECDBFDF91CF91E4
:102EA0001F910F91FF90EF90DF90CF90BF90AF9068
:102EB0009F908F900895CF92DF92EF92FF920F93A1
:102EC0001F93CF93DF93EC016A017B01211531053C
:102ED00079F4E881F9810190F081E02D642FDF9190
:102EE000CF911F910F91FF90EF90DF90CF900994B9
:102EF0002A303105E9F477FF1AC06DE20E94D81636
:102F00008C0144275527BA014C195D096E097F09C8
:102F10002AE0CE010E940517800F911FDF91CF910B
:102F20001F910F91FF90EF90DF90CF9008952AE0CE
:102F3000B701A601CE01DF91CF911F910F91FF90B4
:102F4000EF90DF90CF900C9405179A01AB016627A4
:102F500057FD6095762F0C945B172115310541F4D0
:102F6000DC01ED91FC910190F081E02D642F09943A
:102F70000C9405179A01AB0160E070E00C94AD175A
:102F800008950E943B160E94C0170E942402C0E0D0
:102F9000D0E00E9410042097E1F30E940000F9CFD6
:102FA000CF93DF9300D000D0CDB7DEB761157105A8
:102FB0008105910579F09B01AC0169833A834B83CC
:102FC0005C830E94461A29813A814B815C810E9470
:102FD000B91903C060E070E0CB010F900F900F9023
:102FE0000F90DF91CF9108954F925F926F927F92F1
:102FF000AF92BF92CF92DF92EF92FF920F931F9307
:10300000CF93DF93CDB7DEB729013A019B01AC0125
:10301000241935094609570989899A89AB89BC89D8
:10302000BC01CD016A197B098C099D090E945319C5
:10303000A801970124193509460957090E94B919B1
:10304000CA01B9016A0D7B1D8C1D9D1DDF91CF91B9
:103050001F910F91FF90EF90DF90CF90BF90AF90B6
:103060007F906F905F904F900895089598D088F06A
:103070009F5790F0B92F9927B751A0F0D1F0660F64
:10308000771F881F991F1AF0BA95C9F712C0B1307F
:1030900081F09FD0B1E008959CC0672F782F8827DA
:1030A000B85F39F0B93FCCF3869577956795B395BE
:1030B000D9F73EF490958095709561957F4F8F4F2D
:1030C0009F4F0895E89409C097FB3EF49095809532
:1030D000709561957F4F8F4F9F4F9923A9F0F92FDE
:1030E00096E9BB279395F695879577956795B7955C
:1030F000F111F8CFFAF4BB0F11F460FF1BC06F5F42
:103100007F4F8F4F9F4F16C0882311F096E911C053
:10311000772321F09EE8872F762F05C0662371F074
:1031200096E8862F70E060E02AF09A95660F771F88
:10313000881FDAF7880F9695879597F9089597F97C
:103140009F6780E870E060E008959FEF80EC08954D
:1031500000240A9416161706180609060895002476
:103160000A9412161306140605060895092E0394F0
:10317000000C11F4882352F0BB0F40F4BF2B11F464
:1031800060FF04C06F5F7F4F8F4F9F4F089557FDC3
:103190009058440F551F59F05F3F71F04795880FC5
:1031A00097FB991F61F09F3F79F08795089512165C
:1031B00013061406551FF2CF4695F1DF08C0161608
:1031C00017061806991FF1CF8695710561050894B9
:1031D0000895E894BB2766277727CB0197F90895D0
:1031E0000BD0C4CFB5DF28F0BADF18F0952309F073
:1031F000A6CFABCF1124EECFCADFA0F3959FD1F3BA
:10320000950F50E0551F629FF001729FBB27F00D94
:10321000B11D639FAA27F00DB11DAA1F649F6627E9
:10322000B00DA11D661F829F2227B00DA11D621F38
:10323000739FB00DA11D621F839FA00D611D221FF2
:10324000749F3327A00D611D231F849F600D211DD6
:10325000822F762F6A2F11249F5750408AF0E1F079
:1032600088234AF0EE0FFF1FBB1F661F771F881FC2
:1032700091505040A9F79E3F510570F060CFAACF02
:103280005F3FECF3983EDCF3869577956795B795AD
:10329000F795E7959F5FC1F7FE2B880F911D9695D7
:1032A000879597F90895DB018F939F930E94D81912
:1032B000BF91AF91A29F800D911DA39F900DB29FD2
:1032C000900D11240895991B79E004C0991F961759
:1032D00008F0961B881F7A95C9F780950895AA1B58
:1032E000BB1B51E107C0AA1FBB1FA617B70710F0F1
:1032F000A61BB70B881F991F5A95A9F78095909523
:10330000BC01CD01089597FB072E16F4009407D059
:1033100077FD09D00E946F1907FC05D03EF4909507
:1033200081959F4F0895709561957F4F0895A1E213
:103330001A2EAA1BBB1BFD010DC0AA1FBB1FEE1F2F
:10334000FF1FA217B307E407F50720F0A21BB30B7A
:10335000E40BF50B661F771F881F991F1A9469F7F6
:1033600060957095809590959B01AC01BD01CF0152
:103370000895052E97FB1EF400940E94D01957FD66
:1033800007D00E94971907FC03D04EF40C94D01973
:1033900050954095309521953F4F4F4F5F4F089581
:1033A00090958095709561957F4F8F4F9F4F0895B1
:1033B0000E94E919A59F900DB49F900DA49F800DC8
:1033C000911D11240895EE0FFF1F0590F491E02D3B
:1033D0000994A29FB001B39FC001A39F700D811DEE
:1033E0001124911DB29F700D811D1124911D08950E
:1033F0008F929F92AF92BF92CF92DF92EF92FF9205
:10340000CF93DF93EC01688179818A819B8161157B
:1034100071058105910521F464E279ED8BE597E072
:103420002DE133EF41E050E00E94B91949015A0102
:103430009B01AC01A7EAB1E40E94D8196B017C01A1
:10344000ACEEB4EFA50194010E94571ADC01CB0148
:103450008C0D9D1DAE1DBF1DB7FF03C00197A109B7
:10346000B04888839983AA83BB83BC01CD019F7731
:10347000DF91CF91FF90EF90DF90CF90BF90AF9012
:103480009F908F9008950E94F819089580E091E030
:103490000E94F819089560930001709301018093D0
:1034A0000201909303010895B7FF0C94D8190E946C
:0C34B000D819821B930B0895F894FFCFED
:1034BC000100000004001C0008000101596F757226
:1034CC002073636F72652069733A20004C4F41443E
:0C34DC0045520000000000F413761600BA
:00000001FF
