:100000000C94FF010C9427020C9427020C942702F5
:100010000C9427020C9427020C9427020C942702BC
:100020000C9427020C9427020C9427020C941708B6
:100030000C9427020C9427020C9427020C9427029C
:100040000C9497160C9427020C9427020C94270208
:100050000C9427020C9427020C9427020C9427027C
:100060000C9427020C9427024372617A79636172BF
:10007000004372617A796361720008083C7E7E7E7B
:100080003C18183C08085A5A7E18183C246C08087A
:1000900000183C247E42FFFF0808001038040E20A0
:1000A0007000080802037FFE7E444400100807F039
:1000B0000BD00BFEFFFFFFFFFFFFCE27783C0305B1
:1000C0003F213F1208120A100A0E1C0E0C1E0C14BF
:1000D0001A14161F161E131E1E1B1E1E1F1E3F2146
:1000E0003F3A2F3A173D173F213F181F02040A04D9
:1000F0001F0E04040E1F0A1F0A0E0E1F04110E2EDF
:10010000252E2F2A2E262929021F02081F08150E28
:1001100004040E150E15151B151B040604040C040F
:100120000000000017000300031F0A1F16371A19EA
:1001300004130A153A000300000E11110E000A0400
:100140000A040E0400300004040400100018040324
:100150001F111F121F101D151711151F07041F1740
:10016000151D1F151D01011F1F151F17151F000A43
:1001700000003200040A110A0A0A110A04011502D9
:100180000E11171E051E1F150A0E110A1F110E1F34
:1001900015111F05010E111D1F041F111F1108103D
:1001A0000F1F041B1F10101F061F1E040F0E110E21
:1001B0001F09060E112E1F051A121509011F011F16
:1001C000101F0F180F1F0C1F1B041B031C031915F6
:1001D00013001F11030418111F0002010220202028
:1001E0000001020C121E1F120C0C12120C121F0C1A
:1001F0001A14041E05242A1E1F021C141D10202080
:100200001D1F0814111F101E041E1E021C0C120CB0
:100210003E0A040C123E1E040214160A020F120EAD
:10022000101E0E100E1E081E120C1226281E322A38
:1002300026041E21001F00211E040102013F213F50
:10024000F6E8DBCFC3B8AEA49B928A827B746E685B
:10025000625C57524E4945413E3A3734312E2C2983
:10026000272523211F1D1C1A1917161514131211E7
:10027000100F0E0D0C0B0A09080706450068010057
:1002800000050038016801000091028D020101FFA4
:10029000030101F7030A4E6F205344206361726427
:1002A000206F720A6E6F204C4F414445522E4845D4
:1002B000580A0A153A45786974001D20466C617326
:1002C00068696E670A20206C6F616465722E2E2E3D
:1002D0000A0A444F4E2754205455524E204F46464A
:1002E00021000A0A153A49676E6F7265006D560A59
:1002F0000A504C45415345205455524E204F4646D6
:1003000020004C4F5720424154544552592120005F
:10031000175344001613780016131400151020000C
:1003200015201000540A03E181867F3E186D830F6B
:100330000F0E0183866033186DC3198F1803C38EA7
:100340006033186DE330CF1803C39E603630CDE3C1
:1003500060CF3006C79E7E3E30CDB360CF300CC636
:10036000F6603330D9B660CF33CFCCF66061B0DB06
:100370001E60CF30D86CE6C061B0DB1E618F19986B
:100380006CC6C063B19B0E330F0FB078C6FF7E1FE3
:100390001B061E0F050089300802380249786814D0
:1003A0000000000000080002010000030407000034
:1003B000000000000000010204081020408001023B
:1003C000040810200102040810200404040404049A
:1003D00004040202020202020303030303030000F7
:1003E000000023002600290000000000250028004E
:1003F0002B0000000000240027002A005D051124C6
:100400001FBECFEFD8E0DEBFCDBF11E0A0E0B1E06E
:10041000EAEBF6E302C005900D92AC32B107D9F7D2
:1004200014E0ACE2B1E001C01D92A533B107E1F7E1
:1004300011E0CFEFD1E004C02197FE010E94E21A43
:10044000CE3FD107C9F70E94C0180C945B1B0C94D7
:10045000000088EF9FEF90938501809384018EE1E7
:1004600090E090938B0180938A018CE390E09093CD
:100470009101809390018EE090E09093930180939E
:10048000920190938D0180938C01909387018093CA
:100490008601109259011092580110922D0110926C
:1004A0002C0188E090E090935D0180935C01909333
:1004B00031018093300180E190E09093610180935D
:1004C0006001909335018093340188E190E090932E
:1004D000650180936401909339018093380180E233
:1004E00090E0909369018093680190933D0180931F
:1004F0003C0188E290E090936D0180936C019093B1
:1005000041018093400180E390E0909371018093DA
:100510007001909345018093440188E390E09093AB
:10052000750180937401909349018093480180E4A0
:1005300090E0909379018093780190934D0180939E
:100540004C0188E490E090937D0180937C0190932E
:1005500051018093500180E590E090938101809358
:100560008001909355018093540180E090E020E059
:1005700030E065E270E041E050E0F901E45DFE4FFB
:100580007383628357A746A701962C5F3F4F8B303A
:10059000910599F790939D0180939C018EE991E0DC
:1005A0000E94FD0C61E770E08EE991E00C94800CF4
:1005B00041E063E088EA91E00E94A90E882339F0C7
:1005C00080910601909107018C319105CCF041E0BA
:1005D00061E088EA91E00E94A90E882339F08091B9
:1005E0000601909107018D30910584F42CEA30E0EA
:1005F00040910601609108018CEE91E00C94081284
:1006000002969093070180930601E1CF02979093A1
:10061000070180930601EACF0F93CF93DF9304E2A3
:1006200024E544E260E08CEE91E00E940F100CE0C3
:1006300024E54CE060E08CEE91E00E940F101092F7
:100640009D0110929C01C0E5D0E080919C019091A9
:100650009D018B3091050CF04EC09C01220F331F81
:10066000220F331FF901E45DFE4F40815181483F65
:100670005F4F14F4D183C083880F991F880F991F8F
:10068000FC01E85AFE4F80819181883F9F4F14F40E
:10069000D183C083F901E45DFE4F428160817181A5
:1006A00062507109718360832AE730E08CEE91E03B
:1006B0000E940812E0919C01F0919D01EE0FFF1F36
:1006C000EE0FFF1FE85AFE4F428160817181625038
:1006D0007109718360832AE730E08CEE91E00E941B
:1006E000081280919C0190919D01019690939D012B
:1006F00080939C01AACF10929D0110929C01809141
:100700009C0190919D0120919A0130919B0185302F
:100710009105CCF4A901485F5F4F60910401489FA7
:10072000600D1124260F08E148E18CEE91E00E9453
:100730000F1080919C0190919D01019690939D01D5
:1007400080939C01DCCF8091040190910501029778
:1007500090930501809304014CEF5FEFBA01621B97
:10076000730B8617970734F482E090E090930501AD
:1007700080930401DF91CF910F9108958F929F9202
:10078000AF92BF92CF92DF92EF92FF920F931F939F
:10079000CF93DF9310929D0110929C01C6E0AA2492
:1007A000A394B12C54E5852E912CDCE080919C0122
:1007B00090919D01833091050CF019C1C89FF00103
:1007C000C99FF00D1124EC57FE4F84819581813033
:1007D000910509F46CC074F5892B09F0BEC0428103
:1007E0006081718162507109718360832EE830E00D
:1007F0008CEE91E00E94081280919C0190919D01E5
:10080000E0900601F09007010091080110910901A4
:10081000C89FF001C99FF00D1124EC57FE4F428193
:100820005381608171813CEAC32E30E0D32E2EE8E3
:1008300030E031C08230910509F464C0039709F0BB
:100840008CC04281608171816250710971836083C3
:1008500024E830E08CEE91E00E94081280919C0127
:1008600090919D01E0900601F09007010091080130
:1008700010910901C89FF001C99FF00D1124EC5798
:10088000FE4F42815381608171818CEAC82E80E0E5
:10089000D82E24E830E08EE991E00E94890D88236B
:1008A00009F45BC0B0929901A092980156C04281B0
:1008B00060817181625071097183608328E930E041
:1008C0008CEE91E00E94081280919C0190919D0114
:1008D000E0900601F09007010091080110910901D4
:1008E000C89FF001C99FF00D1124EC57FE4F4281C3
:1008F0005381608171812CEAC22E20E0D22E28E93A
:1009000030E0C9CF42816081718162507109718389
:10091000608322EA30E08CEE91E00E940812809120
:100920009C0190919D01E0900601F09007010091DB
:10093000080110910901C89FF001C99FF00D112411
:10094000EC57FE4F42815381608171819CEAC92E30
:1009500090E0D92E22EA30E09ECF80919C019091C8
:100960009D01C89F8001C99F100D11240C571E4F77
:10097000F80180819181893F9F4F7CF5809196019C
:100980009091970101969093970180939601F801B9
:100990009182808262E070E080E090E00E94CF1857
:1009A000D69F9001D79F300D1124C9010E96F801F2
:1009B0009383828300919C0110919D0164E070E01B
:1009C00080E090E00E94CF18C09FF001C19FF00D21
:1009D0001124EC57FE4F7583648380919C019091A4
:1009E0009D01019690939D0180939C01DFCEDF9144
:1009F000CF911F910F91FF90EF90DF90CF90BF901C
:100A0000AF909F908F9008958EE991E00E94450AE3
:100A1000882309F451C08091980190919901892B04
:100A200039F40E940C030E94D8020E94BE031BC02E
:100A300021E048E062E283EC91E00E942C068CEE1B
:100A400091E00E943E0F6CE071E08CEE91E00E941C
:100A5000D51760919601709197014AE050E08CEEB5
:100A600091E00E94A41866E088EA91E00E94A00E3E
:100A7000882311F18CE190E09093070180930601A7
:100A80008EE090E0909393018093920190938D017A
:100A900080938C0190938701809386011092990135
:100AA00010929801109297011092960168E670E0FA
:100AB0008EE991E00C94800C08951092EF01109251
:100AC000EE0187E291E09093ED018093EC0120919B
:100AD00004013091050185E190E0821B930B909316
:100AE0009B0180939A01E4E8F1E011821082138265
:100AF000128215821482369681E0E639F807A9F74A
:100B0000ECE2F1E01182108213821282349681E0CD
:100B1000E438F807B9F7089550E0DA01AA0FBB1FCF
:100B2000A80FB91F1F963C911F9750962C91509774
:100B3000E32FF22FE60FF11DE60FF11D6591749181
:100B400090967C936E935F97FB0125913491FC0105
:100B50003481329F202D1124DC01A40FB51F919602
:100B60002C939197FB0185919491E92FF0E0822FCE
:100B700090E0E817F90720F4FB0185919491292F63
:100B8000239F202D112492962C93089521E0FC019F
:100B9000248324E020A729E832E0308B278740E037
:100BA00060E00E948C0561E070E083E00E947A15AD
:100BB000E1EBF0E08081887F81608083F89410927F
:100BC0008000E1E8F0E0108210928500109284002D
:100BD00088E191E09093890080938800808188600B
:100BE0008083808181608083EFE6F0E08081826095
:100BF0008083789408950F93FC01942F01112AC0EB
:100C00006230D9F050F4662399F0613019F540E074
:100C1000692FCF010F910C948C056330A9F06430DB
:100C2000C9F46481469F902D1124958F268F12C0A0
:100C30004B3008F09AE0968B0DC06481469F902D52
:100C40001124918F228F06C06481469F902D11241C
:100C5000938F248F0F910895FC0121110EC0648B96
:100C60008481489F402D1124458B15A214A213A204
:100C700081E0878B80932902108E0895809129024C
:100C8000882319F08091260201C080E08093B4008F
:100C90000895FC0161110DC0178A158A14A213A2D0
:100CA000108E1092260210922702109229020C94A4
:100CB0003E060895CF93DF93611104C0EC010E94BA
:100CC00049061982DF91CF9108950F931F93CF9317
:100CD000DF93411110C08B01EC0160E00E945A06C5
:100CE0001E870D871B8A1A8A81E0898389E08E8B93
:100CF000198E1B8E1D8EDF91CF911F910F9108953C
:100D0000CF93DF93DC01611131C08C91882371F1A5
:100D100011968C911197811129C019968C91199770
:100D200017962C91179718969C911897E22FF92FE8
:100D3000E80FF11DE80FF11D259134912F3F8FEF42
:100D4000380711F41C9212C0ED013C873327220FA3
:100D5000331FEA85FB85E20FF31F6591749140E034
:100D6000CD010E94650689858F5F8987DF91CF91CC
:100D7000089560E00C94800660E00C945A060F938E
:100D8000CF93DF93EC0161115CC08981882309F462
:100D900058C08D89811155C02D853E85EA89FB8912
:100DA000EE0FFF1FE20FF31F859194910097D1F48E
:100DB0008989882321F01B8A1A8AF90111C01982B6
:100DC000888160E0882331F0CE010E948006EA89A4
:100DD000FB8925C0CE01DF91CF910F910C9449067C
:100DE00085919491BC01769567957695679580FF7E
:100DF0001DC0AC0176E0569547957A95E1F7292F0D
:100E000026952695269520514F716F7000E0CE01F2
:100E10000E94FB05EA89FB893196FB8BEA8BEE0F7A
:100E2000FF1F8D859E85E80FF91FDACF492F6F735D
:100E300020E0CE010E942C068A899B8901969B8B1B
:100E40008A8BDF91CF910F91089560E00C94BF06DB
:100E5000CF93DF93EC016111BBC08F89882309F424
:100E6000B7C09D89911105C0CE01DF91CF910C943F
:100E7000490691509D8B8DA1811139C02BA13CA1B8
:100E80002F5F3F4FC901880F991FEF8DF8A1E80F21
:100E9000F91F65917491862F87708EA3AB0163E073
:100EA000569547956A95E1F7CA0196958795972FCC
:100EB000969596959FA38F739C81899F802D112471
:100EC0008DA34170409325023CA32BA389A190E000
:100ED0002817390760F02AA1222329F0821B9109E3
:100EE0009CA38BA304C060E0CE010E9449068DA1A3
:100EF00081508DA3888D21E0280F288F4C893FA138
:100F0000340F8C85380F3A836B8D662361F070E067
:100F1000822F992787FD90950E94821A8C8D869F3B
:100F2000300D11243A838A8190E0CB966BE370E018
:100F30000E94821A8A833E893B83698D662371F001
:100F4000772767FD7095822F992787FD90950E94DE
:100F5000821A8A8D869F300D11243B836D8D662306
:100F600091F0822F992787FD909570E00E94821A58
:100F7000CB0162E070E00E94821A2E8D9B81289F37
:100F8000900D11249B838B814F3339F08A300CF004
:100F900089E087FD80E08B8301C01B82F894EA81A1
:100FA000F0E0E05CFD4FE491E093280288A59D818C
:100FB000899F802D11249B81899F802D11249EA1C2
:100FC000899F802D11248093270280932602789494
:100FD000DF91CF91089560E00C942807609127027B
:100FE000662321F180912A028F5F80932A029091DB
:100FF00028028917D8F09091290281E089278093EF
:10100000290210922A0280912502882369F080919A
:101010000A0193E4899F802D1124895B80930A0142
:101020000E94621A909326020C943E0608951F9225
:101030000F920FB60F9211242F933F934F935F930C
:101040006F937F938F939F93AF93BF93EF93FF9390
:101050000E94EE07FF91EF91BF91AF919F918F9109
:101060007F916F915F914F913F912F910F900FBEA4
:101070000F901F901895CF93DF93EC0160E00E94D2
:101080005A0681E892E09E878D871B8A1A8A81E042
:10109000898389E08E8B198E1B8E1D8EDF91CF91F7
:1010A0000895CF93DF93EC0160E00E945A068BE72E
:1010B00092E09E878D871B8A1A8A81E0898389E066
:1010C0008E8B198E1B8E1D8EDF91CF910895FC01A2
:1010D000262F332727FD30959681692F70E06F5FAB
:1010E0007F4FC9010E94821A85830895FC018CE319
:1010F0009FE09383828384E0818381E084870895E5
:10110000CF93DF93FC0124813581232B81F1EC0106
:1011100084858F7149F584E10E945D15BC018827A3
:1011200077FD8095982F0E94631926EE3FE34EECE1
:1011300050E40E94EF190E9435199B017B836A835A
:10114000672B81F084E08983FE01349680E0419131
:1011500051912417350710F4898309C08F5F8430BB
:10116000B1F702C08FEF89838C858F5F8C87DF9109
:10117000CF91089521E0FC012083089570E085E07F
:101180000C947A15AF92BF92CF92DF92EF92FF92BA
:101190000F931F93CF93DF93EC0189819A812FE006
:1011A000289F8001299F100D112485E10E945D1563
:1011B000800F911F24E0969587952A95E1F79A83F1
:1011C00089832881222391F1EC81AD80B12CC12C3F
:1011D000D12CA885B9857D0100E010E06E817F816A
:1011E0009B0140E050E08617970728F0BC01A81744
:1011F000B90708F4BD0180E090E01F921F921F9292
:10120000EF930E94F3186B830F900F900F900F9045
:1012100070E085E0DF91CF911F910F91FF90EF90EB
:10122000DF90CF90BF90AF900C947A15DF91CF9163
:101230001F910F91FF90EF90DF90CF90BF90AF90F4
:1012400008958F929F92AF92BF92CF92DF92EF92CA
:10125000FF920F931F93CF93DF93EC015C0186E81D
:10126000A80EB11CD5019C91992309F44DC09C3066
:1012700018F41CE0191B01C010E0FE01EA5AFF4FF0
:1012800081E080836E01BEE4CB0ED11C60E0C6011C
:101290000E94980F4E01E3E58E0E911CD4018C91B3
:1012A00003E0080F9DE2F92E4F2D481B410F23E06C
:1012B000E22E24E560E0C6010E94CB1161E0C60188
:1012C0000E94980FF401808103E0080F4F2D481B06
:1012D000410F24E560E0C6010E946B11FE01E95A4E
:1012E000FF4F84E080833196D4018C91181B115DEF
:1012F0001083CC57DF4F68817981C6010E94B217F5
:10130000F501808181508083DF91CF911F910F91F2
:10131000FF90EF90DF90CF90BF90AF909F908F9015
:101320000895CF92DF92FF920F931F93CF93DF9395
:10133000FC01248D358D232B09F49FC0EC018C0119
:10134000025B1F4F40E061E0C8010E949C0FFE015C
:10135000E95AFF4FDE01AE5ABF4F9C9185E5891BCC
:10136000808331961082698D613009F463C028F062
:10137000888D653008F074C06FC0CE0185960E94DC
:10138000BC0681E0FE01EA5AFF4F80836EEB70E0FD
:10139000C8010E9479131D8E1C8EFE01EC5AFF4F6E
:1013A000108288EAF82E6E01FAE0CF0ED11CCE0131
:1013B0000E94450A8823D9F362E073E0C8010E94C5
:1013C000B2176A8D7B8D4AE050E0C8010E94B918BF
:1013D0006DEE72E0C8010E94B2176F2D62956F70BA
:1013E00070E04AE050E0C8010E94A41862EE72E08A
:1013F000C8010E94B21764E0C6010E94A00E8111CC
:101400003CC0FA94F110D3CF60E0CE010E94BE0838
:1014100093B7917F946093BF83B7816083BF83B795
:10142000816083BF889583B78E7F83BF83B78E7FAC
:1014300083BFBDCFCF58DF4F88819981AA81BB81FF
:101440008F709927AA27BB270897A105B10510F42B
:1014500067E009C068E707C0882379F06B5F03C0C5
:10146000882359F06FE2C801DF91CF911F910F914E
:10147000FF90DF90CF900C94D717DF91CF911F9101
:101480000F91FF90DF90CF9008958F929F92AF922F
:10149000BF92CF92DF92EF92FF920F931F93CF9361
:1014A000DF93EC017C0180E8E80EF11CF7018080FD
:1014B0009180A280B3800E94E116861A970AA80A3A
:1014C000B90A6E01FFE7CF0ED11CF601808190E0D2
:1014D000A0E0B0E08E0105581F4F88159905AA05B8
:1014E000BB0550F4F80180819181A281B381892BE1
:1014F0008A2B8B2B09F040C0F80180819181A28159
:10150000B381892B8A2B8B2BA9F57E01F5E2EF0E97
:10151000F11CC7010E94B906C7010E942507C70137
:101520000E94EB07CE010E942109CE010E94910981
:101530007E018EE4E80EF11CC7010E944F0FFE01F0
:10154000EC5AFF4F8081811103C0C7010E943E0FFA
:101550000E94ED16F8016083718382839383FE01FC
:10156000EB58FF4FC958DF4F28813981621B730B3D
:101570007183608380E037C00E94E116F60120810C
:10158000DC01CB01820F911DA11DB11DF7018083EC
:101590009183A283B383FE01EF58FF4F8081918135
:1015A000A281B3810196A11DB11D80839183A28385
:1015B000B383F80110821182128213820E94ED1609
:1015C000FE01E958FF4F6083718382839383CE01CC
:1015D0000E94C208CE010A960E94680ECE0148966B
:1015E0000E94800881E0DF91CF911F910F91FF90C1
:1015F000EF90DF90CF90BF90AF909F908F90089525
:101600000F931F93CF93DF93EC018C01025B1F4F6D
:10161000C8010E943E0F6AEB72E0C8010E94B21737
:10162000C8010E944F0F8CB583608CBD8DB58E7F35
:101630008DBD8CE191E0EEEFFFE30995FE01EC5AE0
:10164000FF4F108265E972E0C8010E94F217C801DD
:101650000E944F0F2A96CE010E94680E64E0CE01D0
:101660000E94A00E811107C062E370E080E090E06C
:101670000E941217F0CFDF91CF911F910F91089523
:101680002F923F924F925F926F927F928F929F9292
:10169000AF92BF92CF92DF92EF92FF920F931F9380
:1016A000CF93DF93CDB7DEB72A970FB6F894DEBF9E
:1016B0000FBECDBF3C0120E7620E711CF3012081FB
:1016C000222309F404C15A011B019A8789877A975A
:1016D00081E08083E985FA85EB5AFF4F1082E98526
:1016E000FA85EC5AFF4F1082E985FA85108E8F013A
:1016F000025B1F4F61E0C8010E94980FF101F49155
:10170000FF83C984DA8427E5C20ED11CE984FA84F8
:1017100088E5E80EF11CE985FA85EE5AFF4FFA8359
:10172000E98389859A858F589F4F9E838D83E985AC
:10173000FA85ED5AFF4FFC83EB8389849A84FAE0A3
:101740008F0E911C49845A8425E2420E511C8985D2
:101750009A850E94450A8823D1F38F81882321F03E
:10176000EB81FC81508101C050E024E233E040E095
:1017700060E0C80158870E9408125885A114B1047E
:1017800039F04CE0450F950160E0C8010E94081255
:10179000F60110828CE0F7018083B101C8010E943C
:1017A000B217E981FA818081982F990F890F81956D
:1017B0008D5AF6018083EB81FC818081982F990FEF
:1017C000890F8195835DF7018083ED81FE818081A2
:1017D00084FF03C060E273E002C06CE173E0C80103
:1017E0000E94F217E981FA818081982F990F890F61
:1017F00081958D5AF6018083F70180818F5F808308
:10180000E985FA8582A5882319F068E173E002C0B2
:1018100064E173E0C8010E94F217E981FA818081D6
:10182000982F990F890F81958D5AF6018083F701C2
:1018300080818F5F808360E173E0C8010E94F217AE
:1018400065E0C4010E94A00E882351F0E985FA8565
:1018500062A56F5FC2010E946708C2010E94510821
:1018600064E0C4010E94A00E81111FC0F301208119
:10187000422F50E060E070E0ED81FE818081918137
:10188000A281B38184179507A607B70710F02F3FF1
:1018900061F466E0C4010E94A00E882309F457CFCA
:1018A00089859A850E94000B42CF8FEFF3018083D8
:1018B00009851A850B5D1F4F60E0C8010E945A061A
:1018C000C8010E943B0881E0E985FA85808F2A964D
:1018D0000FB6F894DEBF0FBECDBFDF91CF911F9141
:1018E0000F91FF90EF90DF90CF90BF90AF909F90BF
:1018F0008F907F906F905F904F903F902F900895C2
:1019000040E050E00C94400BE0E8F7E7259134917B
:1019100081E02130304C09F080E00895CF93DF93CF
:10192000EC010E94840C9E01275A3F4FDE01A05912
:10193000BF4F882309F43CC0E6E9F7E78491F90139
:101940008083E7E9F7E7E491EC83E8E9F7E7E491DE
:10195000ED83E9E9F7E7859194919F838E83EBE925
:10196000F7E78591949199878887EDE9F7E7E49106
:10197000EBA7EEE9F7E7E491EAA7EFE9F7E7E491EF
:10198000EC93E0EAF7E7859194919D8F8C8FE2EAE2
:10199000F7E7859194919F8F8E8FE4EAF7E7859121
:1019A000949199A388A3E6EAF7E78591949120C0E2
:1019B0008CE3F90180831C828FEF8D8320E233E07A
:1019C0003F832E8324ED33E03987288791E09BA75E
:1019D0009AA78C938CEA9DE09D8F8C8F8EED9DE075
:1019E0009F8F8E8F84E79EE099A388A38CE39FE06E
:1019F0009BA38AA3DF91CF910895CF92DF92EF92BC
:101A00000F93CF93DF93EC01FC01E158FF4F82E38A
:101A10008083349781E090E0A0E0B0E08083918300
:101A2000A283B3833B978FEF8083CE010E948E0CFD
:101A3000CE010E94BA086FEFCE010E94BE086E016F
:101A40008AE0C80ED11CC6010E94580EC6010E9431
:101A5000680ECE0148960E9476088EE0E82E0FE0D0
:101A600020E14BE06DE0CE01825B9F4F0E948D1321
:101A7000A596CE010E94C60565E0C6010E94A00E93
:101A8000882351F060E0CE01DF91CF910F91EF906C
:101A9000DF90CF900C94670840E064E973E0CE01DA
:101AA000DF91CF910F91EF90DF90CF900C9465066E
:101AB0008F929F92AF92BF92CF92DF92EF92FF925E
:101AC0000F931F93CF93DF93CDB7DEB7260F371F4A
:101AD000E216F30684F4EA0CFB1C6E157F055CF439
:101AE000040F151FC016D10634F48C0C9D1C81E028
:101AF000481559050CF080E0DF91CF911F910F91AF
:101B0000FF90EF90DF90CF90BF90AF909F908F901D
:101B100008952F923F924F925F926F927F928F9291
:101B20009F92AF92BF92CF92DF92EF92FF920F936C
:101B30001F93CF93DF93CDB7DEB760970FB6F894BE
:101B4000DEBF0FBECDBF9E878D873B01588B4F8771
:101B500038872F8318012701DA86C986F901849115
:101B6000282F30E03A8329833196E4916E2F70E07C
:101B70007C836B83F6018491282F30E03E832D8394
:101B80003196E4916E2F70E07C876B874B01590191
:101B9000670178010B811C8129813A81B3018D8510
:101BA0009E850E94580D811102C080E068C06214B9
:101BB000730424F4A1014619570902C040E050E023
:101BC0008F8598898415950524F49201281B390B7B
:101BD00002C020E030E08D819E81820D931D6981DD
:101BE0007A81660D771D681779072CF0DC01A6193C
:101BF000B709BA83A983EB85FC85E40DF51D8B81BC
:101C00009C816F857889860F971F8E179F072CF010
:101C1000CF01861B970B9C838B83722E542E0D85D0
:101C20001E85025B1F4F3F8434186218872D90E099
:101C3000EB81FC818E179F070CF0B7CF252C432C2E
:101C4000470C822D90E0A981BA818A179B07ACF4DA
:101C5000272D422D6F817885C8010E944A13882361
:101C600051F0242D462D420D69857A85C8010E94C8
:101C70004A13811104C02394E4CF7394D7CF6096A4
:101C80000FB6F894DEBF0FBECDBFDF91CF911F918D
:101C90000F91FF90EF90DF90CF90BF90AF909F900B
:101CA0008F907F906F905F904F903F902F9008950E
:101CB000FC0188E0808389E0818387E0828386E07D
:101CC000838384E0848382E0858381E18683089531
:101CD000DF92EF92FF920F931F93CF93DF93EC016C
:101CE0007C0187E0E80EF11C8701DD24DA9462E0D4
:101CF00088810E94021688810E946E16F801892B45
:101D000021F480818F5F808309C08081882351F016
:101D10008F3F11F4108202C0F801D08260E0888108
:101D20000E94021621960F5F1F4FCE15DF05F9F6B0
:101D3000DF91CF911F910F91FF90EF90DF90089569
:101D4000FC01E60FF11D81E09781913009F080E000
:101D50000895FC01262F30E0E20FF31F423030F4EB
:101D60009781915081E09E3F58F009C087818F3F55
:101D700031F0642F0E94621A81E0913009F080E016
:101D800008958EBD00000DB407FEFDCF8EB50895F9
:101D9000FC01643508F053C0403308F050C090A1F6
:101DA000742F759575957595262F332727FD3095DA
:101DB000542F57709230A1F4F901E55DFD4F84E591
:101DC0007802E00DF11D1124808190E0052E02C003
:101DD000959587950A94E2F78095982F91700AC09F
:101DE000933041F484858170462740954170841377
:101DF00003C014C0911112C084E57802200D311D7A
:101E00001124F901E55DFD4F81E090E001C0880FEC
:101E10005A95EAF780959081892310C084E578026D
:101E2000200D311D1124F901E55DFD4F81E090E0A9
:101E300001C0880F5A95EAF79081892B8083089515
:101E40001F93CF93DF93EC01162FF89460E08F85FA
:101E50000E943E16888918161CF460E00E943E1607
:101E6000812F0E94C10E888918161CF461E00E941F
:101E70003E167894DF91CF911F91089528EF31E0BD
:101E8000EBE2F2E0DF01A9011D9241505040E1F781
:101E9000DC0119961C9219971A961C920895CF92FC
:101EA000DF92EF92FF921F93CF93DF93EC018C852B
:101EB0008F5F8C878BE2C82E82E0D82E10E0612FD6
:101EC0006064CE010E94200F60E8CE010E94200FC6
:101ED00061E08F850E943E16888918161CF460E028
:101EE0000E943E16E12CF12CF601EE0DFF1D8081C3
:101EF0000E94C10E8FEFE81AF80A84E5E816F10493
:101F000099F7888918161CF461E00E943E161F5F3D
:101F100084E5C80ED11C163091F660E4CE01DF9145
:101F2000CF911F91FF90EF90DF90CF900C94200FF6
:101F3000FC0160A361A30895FC0160A341A308957F
:101F4000DF92EF92FF920F931F93CF93DF931F9235
:101F5000CDB7DEB78C01D62EF42EE12CE21654F468
:101F60004E2D4F0D6D2DC80129830E94C80EE3949C
:101F70002981F4CF0F90DF91CF911F910F91FF90A6
:101F8000EF90DF900895DF92EF92FF920F931F93EF
:101F9000CF93DF931F92CDB7DEB78C01D62EF42EF0
:101FA000E12CE21654F46E2D6D0D4F2DC8012983DE
:101FB0000E94C80EE3942981F4CF0F90DF91CF9156
:101FC0001F910F91FF90EF90DF900895DF92EF92B5
:101FD000FF920F931F93CF93DF937C01D62FD22EC6
:101FE000C42F112707FD1095040F111D47FD1A95E9
:101FF0004C2F552747FD50954017510744F42D2D80
:102000004C2F6D2FC7010E94C30FCF5FF1CFDF911F
:10201000CF911F910F91FF90EF90DF900895AF92B5
:10202000BF92CF92DF92EF92FF920F931F93CF93C5
:10203000DF936C01C62FD42F122F202F332727FDBB
:102040003095241B310947FD339537FF03C0319587
:1020500021953109812F992787FD90958C1B910936
:10206000C7FD939597FF03C0919581959109BB2476
:10207000B3948217930714F0B12C06C0812F102F50
:10208000082F8C2FCD2FD82F1C1734F48D2FD02F45
:10209000082F8C2FC12F182FA12EAC1A202F3327D9
:1020A00027FD30952D1B3109D7FD339537FF03C030
:1020B000319521953109E22EFA2CA7FE03C0FF24A9
:1020C000F394FA0CF594D01714F00FEF0FC001E061
:1020D0000DC0BB2071F04C2F6D2FC6010E94C80EA1
:1020E000FE18F7FE02C0D00FFA0CCF5F1C178CF75A
:1020F00003C04D2F6C2FF1CFDF91CF911F910F9126
:10210000FF90EF90DF90CF90BF90AF9008958F92A7
:102110009F92AF92BF92CF92DF92EF92FF920F9376
:102120001F93CF93DF937C01162FD42EC22F81E013
:10213000C82EC21AB22EB194BB0CD0E0802F84708E
:10214000A82E802F8270982E802F8870882E017084
:10215000DC170CF04DC0C7FC04C0C150B394B3945D
:10216000CB0CDF5F8D2F880F8F5FC80EAA2071F018
:102170004C2F4D0D6D2F610FC7010E94C80E4D2FC2
:102180004D0D6C2F610FC7010E94C80E992071F090
:102190004D2D4C1B6D2F610FC7010E94C80E4D2D98
:1021A0004D1B6C2F610FC7010E94C80E882071F073
:1021B0004D2F4D0D612F6C1BC7010E94C80E4C2F77
:1021C0004D0D612F6D1BC7010E94C80E002309F43D
:1021D000BFCF4D2D4D1B612F6C1BC7010E94C80E38
:1021E0004D2D4C1B612F6D1BC7010E94C80EB0CF37
:1021F000DF91CF911F910F91FF90EF90DF90CF90E3
:10220000BF90AF909F908F9008958F929F92AF92C2
:10221000BF92CF92DF92EF92FF920F931F93CF93D3
:10222000DF936C01B62EA42EC22F11E0121BF22EEA
:10223000F194FF0CD1E0802F8170882E9924939423
:102240009E0C02708FEF8D0F8C17C4F517FD04C024
:10225000C150F394F3941F0D8D2F880F8F5F180FCB
:10226000882099F02C2F220F290D4A2D4C1B6D2F01
:102270006B0DC6010E94A00F23E02E0D4A2D4D1BB1
:102280006C2F6B0DC6010E94A00F002399F02C2F1C
:10229000220F290D4A2D4C1B6B2D6D1BC6010E9470
:1022A000A00F23E02E0D4A2D4D1B6B2D6C1BC6017C
:1022B0000E94A00FDF5FE394E394C4CFDF91CF913E
:1022C0001F910F91FF90EF90DF90CF90BF90AF9054
:1022D0009F908F9008959F92AF92BF92CF92DF927E
:1022E000EF92FF920F931F93CF93DF936C01C62F52
:1022F000D42FA22EBE2CB194BB0C9B2C920EFE2C84
:10230000F60E292D6F2D0E94C30F1FEF100F1D0F0A
:10231000292D412F6F2DC6010E94C30F0B0DDE0D1D
:10232000202F4D2F6C2FC6010E94A00FCA0D6FEFFA
:102330006C0F202F4D2FC6010E94A00F01E02E2D03
:102340004D2F6F2DC6010E9487108E2D8095C80FCE
:1023500002E02E2D4D2F6C2FC6010E948710D12F29
:10236000DE1904E02E2D4D2F6C2FC6010E94871020
:1023700008E02E2D4D2F6F2DC6010E948710DF9192
:10238000CF911F910F91FF90EF90DF90CF90BF9072
:10239000AF909F9008959F92AF92BF92CF92DF929D
:1023A000EF92FF920F931F93CF93DF936C01A62EB2
:1023B000B42EF22EC02F1E2DDE2DD195DD0F9E2CBA
:1023C000960E2D2F2F0D692D0E94E60FC150CD0FB7
:1023D000DE2DDB0DAA94FA0C6F2D6E19EC2E01E0A8
:1023E000212F4D2FC6010E94051102E0212F4D2FF4
:1023F000692DC6010E940511DF91CF911F910F91A8
:10240000FF90EF90DF90CF90BF90AF909F90089596
:102410004F925F926F927F928F929F92AF92BF92F4
:10242000CF92DF92EF92FF920F931F93CF93DF93A0
:10243000F901C49031965491EC0108A164350CF077
:1024400018C1DD24C7FCD094A62FBB27A7FDB095EB
:102450007D01EC0CFD1C1E141F040CF00AC140335E
:102460000CF007C1A52E842E992487FC9094F401CA
:10247000E50FF11D57FDFA951E161F060CF0F9C069
:102480002E5F3F4FE6012796D7FD279673E0D5953F
:10249000C7957A95E1F747FF0AC0A52EA40EC89DFF
:1024A000A001C99D500D1124241B350B40E0EA2DDD
:1024B000FF27E7FDF095E40FF11D47FDFA95F19731
:1024C0001CF050E3A52EA41A67FD60E0F701E53586
:1024D000F10514F0E4E5F0E07E2FFC01D484D4266D
:1024E000862F992787FD9095FC01EA1BFB0BDF01E6
:1024F0007F01F7E0EF22FF24E0E8F0E002C0F5956D
:10250000E795EA94E2F71E2FB7FD179653E0B595CD
:10251000A7955A95E1F72A0F3B1FE42FE77051E08A
:1025200001C0550FEA95EAF7459545954595B4E5FF
:102530004B02800D911D1124855D9D4FC12CBB2444
:10254000A7FCB094992493942E015524EC2DF0E02F
:10255000EA15FB050CF08DC0F90144910130E1F45E
:102560007C01A12F862E881AB82DBE0DB71708F052
:1025700077C0B42FBA2321F0E701B881B52BB88317
:10258000B0E0B595A795109719F431964491A0E85D
:10259000DFEFED1AFD0AE8CF01111FC0752E709410
:1025A0007C01A12FF901862E881AB82DBE0DB71710
:1025B00008F056C0B42FBA2321F0E701B881B72143
:1025C000B883B0E0B595A795109719F4319644916A
:1025D000A0E8DFEFED1AFD0AE8CF033031F07C010F
:1025E000A12FF901862E881A37C0752E7094862E79
:1025F0007C01A12FF9018716D8F4B42FBA2359F022
:10260000E701B881682C6D2460FE02C0B52B02C0C2
:10261000B721E701B883B0E0B595A795109719F4F5
:1026200031964491A0E88394DFEFED1AFD0AE3CFE1
:10263000D92416C0B42FBA2321F0E701B881B527F9
:10264000B883B0E0B595A795109719F431964491E9
:10265000A0E8DFEFED1AFD0AB82DBE0DB71750F355
:10266000550F19F48C5A9F4F51E0C394240D351D1A
:102670006DCFDF91CF911F910F91FF90EF90DF9081
:10268000CF90BF90AF909F908F907F906F905F9012
:102690004F900895CF93DF93FB01C491842F90E076
:1026A00033E0959587953A95E1F70296D0E0279625
:1026B00053E0D595C7955A95E1F72C9FD0012D9FF2
:1026C000B00D11248A0F9B1FE80FF91FE491F0E071
:1026D000477060E870E002C0759567954A95E2F72B
:1026E000E623F72381E0EF2B09F480E0DF91CF911F
:1026F0000895DC01FB0184918F5F14968C931497ED
:102700003196E491EF5F1596EC9315976E5F7F4FCE
:102710005F967C936E935E970895EF920F93CF939D
:10272000DF93EC014E876D872F87E98A088B81E064
:10273000888788A319A28F836EEB70E0CE010E9478
:1027400079130E9427158CB58F7D8CBD8CB58C7F3D
:1027500081608CBD8DB581608DBD8CB58C608CBD6C
:1027600061E08E850E94021661E08D850E9402164E
:1027700061E08F850E940216898918161CF461E0B9
:102780000E940216888918161CF461E00E94021645
:10279000898918166CF460E00E943E166AE070E0C9
:1027A00080E090E00E94121761E089890E943E1645
:1027B0008D85992787FD9095FC01E653FC4FE491A8
:1027C000F0E0EE0FFF1FE851FC4F259134913D8B57
:1027D0002C8BFC01EA54FC4FE491EB8F8E859927FA
:1027E00087FD9095FC01E653FC4FE491F0E0EE0F7D
:1027F000FF1FE851FC4F259134913B8B2A8BFC0144
:10280000EA54FC4FE491EA8F8889992787FD9095D7
:10281000FC01E653FC4FE491F0E0EE0FFF1FE8519E
:10282000FC4F259134913F8B2E8BFC01EA54FC4FD9
:10283000E491EC8F8F85992787FD9095FC01E653F5
:10284000FC4FE491F0E0EE0FFF1FE851FC4F2591A3
:102850003491398F288FFC01EA54FC4FE491ED8FBD
:1028600061E2CE010E94200F64E1CE010E94200FA0
:102870008B8587FF02C08FE78B876B856068CE01F1
:102880000E94200F60E2CE010E94200F6CE0CE017A
:102890000E94200FCE01DF91CF910F91EF900C9409
:1028A0004F0F6F927F928F929F92AF92BF92CF9273
:1028B000DF92EF92FF920F931F93CF93DF93EC0180
:1028C00088A064350CF080C040330CF07DC0EC81F2
:1028D000F0E031970E9FC0010F9F900D1124860FDD
:1028E000911D67FD9A95181619060CF06DC0ED81C3
:1028F000E09FF0011124E40FF11D47FDFA951E162B
:102900001F060CF061C0102FE42EF62EB62E962E68
:10291000C22ED12CEB2DEF19FF27E7FDF0958C810E
:1029200090E0E817F9070CF04EC00197E817F90797
:1029300079F0C89E9001C99E300DD89E300D1124AB
:10294000E20FF31F8E8D9F8DE80FF91F749001C069
:10295000712CAE2C6E2C2A2D2E19332727FD309585
:102960008D8190E0281739075CF570FE10C011309A
:1029700031F44A2D6B2DCE010E94C80E1DC0012FCF
:10298000212F462D692DCE010E94E60F15C089A189
:1029900098A1891789F088A3113031F44A2D6B2D45
:1029A000CE010E94C80E07C0012F212F462D692D90
:1029B000CE010E94E60F88A27694610EA394CBCF3D
:1029C000910EB394A7CF88A2DF91CF911F910F9161
:1029D000FF90EF90DF90CF90BF90AF909F908F903F
:1029E0007F906F9008950F93CF93DF93EC016A303F
:1029F00019F42D8198851FC06D3019F1262F088597
:102A00004A8569850E94511428853C818985329FB9
:102A1000800D112489879F81992399F0992787FD3B
:102A2000909544E550E0239F40195109112448171F
:102A300059073CF49D818A85299F800D11248A873E
:102A4000198681E090E0DF91CF910F910895CF93A7
:102A5000CFB7F89480912B04811127C0E4EDF3E007
:102A60008491E0ECF3E09491E82FF0E0EE0FFF1F8B
:102A7000EE50FC4FA591B491EC91E92321F461E073
:102A80008AE00E943E1661E08AE00E9402168CB540
:102A900080618CBD8CB580648CBD61E08DE00E944E
:102AA000021661E08BE00E94021680912B048F5F7A
:102AB00080932B04CFBFCF9108958E3008F08E50B5
:102AC000877020910B0190E4299F90011124822BA3
:102AD00080937C0080917A00806480937A0080915A
:102AE0007A0086FDFCCF809178002091790090E0FB
:102AF000922B08951F93CF93DF93182FEB0161E082
:102B00000E940216209711F460E004C0CF3FD10567
:102B100039F461E0812FDF91CF911F910C943E1623
:102B2000E12FF0E0EE55FC4FE491E330F9F048F48A
:102B3000E130B9F0E230A1F584B5806284BDC8BD52
:102B400034C0E730E9F0E83019F1E43049F580911C
:102B50008000806280938000D0938B00C0938A00B5
:102B600024C084B5806884BDC7BD1FC0809180002B
:102B7000806880938000D0938900C093880015C03E
:102B80008091B00080688093B000C093B3000DC006
:102B90008091B00080628093B000C093B40005C003
:102BA000C038D1050CF0B5CFAFCFDF91CF911F91D9
:102BB0000895833081F028F4813099F08230A1F0BB
:102BC00008958730A9F08830B9F08430D1F480912D
:102BD00080008F7D03C0809180008F77809380007C
:102BE000089584B58F7702C084B58F7D84BD089524
:102BF0008091B0008F7703C08091B0008F7D80936B
:102C0000B0000895CF93DF9390E0FC01EA54FC4FAD
:102C10002491FC01E653FC4F8491882361F190E0FC
:102C2000880F991FFC01EE50FC4FC591D491FC0117
:102C3000E851FC4FA591B491611109C09FB7F89478
:102C40008881209582238883EC912E230BC06230EB
:102C500061F49FB7F8943881822F8095832388830D
:102C6000EC912E2B2C939FBF06C08FB7F894E88170
:102C70002E2B28838FBFDF91CF9108951F93CF9381
:102C8000DF93282F30E0F901EE55FC4F8491F901D4
:102C9000EA54FC4FD491F901E653FC4FC491CC2384
:102CA000C9F0162F81110E94D915EC2FF0E0EE0F1C
:102CB000FF1FE851FC4FA591B4918FB7F894111103
:102CC00005C09C91ED2FE095E92302C0EC91ED2B1E
:102CD000EC938FBFDF91CF911F910895CF93DF9336
:102CE000282F30E0F901EE55FC4F8491F901EA54A8
:102CF000FC4FD491F901E653FC4FC491CC2391F0E1
:102D000081110E94D915EC2FF0E0EE0FFF1FE25267
:102D1000FC4FA591B491EC91ED2381E090E021F47A
:102D200080E002C080E090E0DF91CF9108951F9293
:102D30000F920FB60F9211242F933F938F939F936F
:102D4000AF93BF9380912D0490912E04A0912F04F6
:102D5000B091300430912C0423E0230F2D3720F460
:102D60000196A11DB11D05C026E8230F0296A11DE5
:102D7000B11D20932C0480932D0490932E04A093D6
:102D80002F04B09330048091310490913204A091CB
:102D90003304B09134040196A11DB11D8093310418
:102DA00090933204A0933304B0933404BF91AF9155
:102DB0009F918F913F912F910F900FBE0F901F9079
:102DC00018952FB7F89460912D0470912E0480917E
:102DD0002F04909130042FBF08953FB7F89480914D
:102DE000310490913204A0913304B091340426B59B
:102DF000A89B05C02F3F19F00196A11DB11D3FBF33
:102E0000BA2FA92F982F8827820F911DA11DB11DC0
:102E1000BC01CD0142E0660F771F881F991F4A95BC
:102E2000D1F70895CF92DF92EF92FF92CF93DF9385
:102E30006B017C010E94ED16EB01C114D104E10489
:102E4000F10489F00E9434190E94ED166C1B7D0B71
:102E5000683E734090F381E0C81AD108E108F10898
:102E6000C851DC4FEACFDF91CF91FF90EF90DF9018
:102E7000CF900895789484B5826084BD84B58160D4
:102E800084BD85B5826085BD85B5816085BDEEE672
:102E9000F0E0808181608083E1E8F0E01082808151
:102EA00082608083808181608083E0E8F0E08081BF
:102EB00081608083E1EBF0E0808184608083E0EBDF
:102EC000F0E0808181608083EAE7F0E080818460C7
:102ED0008083808182608083808181608083808123
:102EE000806880831092C1000895CF92DF92EF92A4
:102EF000FF920F931F93CF93DF936C01EB017B0144
:102F0000E40EF51E00E010E0CE15DF0561F06991DA
:102F1000D601ED91FC910190F081E02DC60109955B
:102F2000080F191FF1CFC801DF91CF911F910F91A9
:102F3000FF90EF90DF90CF9008956115710579F0C3
:102F4000FB0101900020E9F73197AF01461B570BB9
:102F5000DC01ED91FC910280F381E02D099480E089
:102F600090E00895EF92FF920F931F93CF93DF931A
:102F70007C01FB0100E010E06491EF0121966623E3
:102F800061F0D701ED91FC910190F081E02DC70136
:102F90000995080F191FFE01EFCFC801DF91CF91EE
:102FA0001F910F91FF90EF9008950C949D17DC01F5
:102FB000ED91FC910190F081E02D09940F931F9306
:102FC000CF93DF93EC016DE00E94D7178C016AE08C
:102FD000CE010E94D717800F911FDF91CF911F91D3
:102FE0000F9108950F931F93CF93DF93EC010E94ED
:102FF000B2178C01CE010E94DE17800F911FDF9166
:10300000CF911F910F9108958F929F92AF92BF928F
:10301000CF92DF92EF92FF920F931F93CF93DF93A4
:10302000CDB7DEB7A1970FB6F894DEBF0FBECDBF08
:103030006C01142FE52FCB01022F19A2223008F4C6
:103040000AE07E0121E2E20EF11C802E912CA12CDF
:10305000B12C612F7E2FA50194010E94961A029F28
:103060001019112481E0E81AF1081A3014F4105DE7
:1030700001C0195CF7011083122FE32FCA01232B23
:10308000242B252B31F7B701C6010E949D17A1966D
:103090000FB6F894DEBF0FBECDBFDF91CF911F9169
:1030A0000F91FF90EF90DF90CF90BF90AF909F90E7
:1030B0008F900895CF92DF92EF92FF920F931F931C
:1030C000CF93DF93EC016A017B012115310579F47F
:1030D000E881F9810190F081E02D642FDF91CF919B
:1030E0001F910F91FF90EF90DF90CF9009942A30BD
:1030F0003105E9F477FF1AC06DE20E94D7178C0101
:1031000044275527BA014C195D096E097F092AE049
:10311000CE010E940418800F911FDF91CF911F9163
:103120000F91FF90EF90DF90CF9008952AE0B701C4
:10313000A601CE01DF91CF911F910F91FF90EF90EB
:10314000DF90CF900C9404189A01AB01662757FDCD
:103150006095762F0C945A182115310541F4DC0145
:10316000ED91FC910190F081E02D642F09940C9475
:1031700004189A01AB0160E070E00C94AC1808955B
:103180000E943A170E94BF180E942902C0E0D0E0B6
:103190000E9404052097E1F30E940000F9CFCF932D
:1031A000DF9300D000D0CDB7DEB761157105810582
:1031B000910579F09B01AC0169833A834B835C8371
:1031C0000E94451B29813A814B815C810E94B81A7B
:1031D00003C060E070E0CB010F900F900F900F9054
:1031E000DF91CF9108954F925F926F927F92AF924D
:1031F000BF92CF92DF92EF92FF920F931F93CF93E4
:10320000DF93CDB7DEB729013A019B01AC01241948
:1032100035094609570989899A89AB89BC89BC0156
:10322000CD016A197B098C099D090E94521AA801D7
:10323000970124193509460957090E94B81ACA018D
:10324000B9016A0D7B1D8C1D9D1DDF91CF911F91D2
:103250000F91FF90EF90DF90CF90BF90AF907F9055
:103260006F905F904F900895089598D088F09F5781
:1032700090F0B92F9927B751A0F0D1F0660F771FC2
:10328000881F991F1AF0BA95C9F712C0B13081F0A2
:103290009FD0B1E008959CC0672F782F8827B85F32
:1032A00039F0B93FCCF3869577956795B395D9F703
:1032B0003EF490958095709561957F4F8F4F9F4F0D
:1032C0000895E89409C097FB3EF490958095709519
:1032D00061957F4F8F4F9F4F9923A9F0F92F96E962
:1032E000BB279395F695879577956795B795F111D7
:1032F000F8CFFAF4BB0F11F460FF1BC06F5F7F4F74
:103300008F4F9F4F16C0882311F096E911C0772385
:1033100021F09EE8872F762F05C0662371F096E88E
:10332000862F70E060E02AF09A95660F771F881F5D
:10333000DAF7880F9695879597F9089597F99F671B
:1033400080E870E060E008959FEF80EC089500242D
:103350000A941616170618060906089500240A94FA
:1033600012161306140605060895092E0394000C80
:1033700011F4882352F0BB0F40F4BF2B11F460FF0F
:1033800004C06F5F7F4F8F4F9F4F089557FD905838
:10339000440F551F59F05F3F71F04795880F97FB19
:1033A000991F61F09F3F79F08795089512161306D3
:1033B0001406551FF2CF4695F1DF08C01616170602
:1033C0001806991FF1CF8695710561050894089537
:1033D000E894BB2766277727CB0197F908950BD090
:1033E000C4CFB5DF28F0BADF18F0952309F0A6CFD7
:1033F000ABCF1124EECFCADFA0F3959FD1F3950F89
:1034000050E0551F629FF001729FBB27F00DB11D68
:10341000639FAA27F00DB11DAA1F649F6627B00DF8
:10342000A11D661F829F2227B00DA11D621F739FE1
:10343000B00DA11D621F839FA00D611D221F749FEF
:103440003327A00D611D231F849F600D211D822F36
:10345000762F6A2F11249F5750408AF0E1F088237D
:103460004AF0EE0FFF1FBB1F661F771F881F91508A
:103470005040A9F79E3F510570F060CFAACF5F3F43
:10348000ECF3983EDCF3869577956795B795F795BD
:10349000E7959F5FC1F7FE2B880F911D9695879545
:1034A00097F90895DB018F939F930E94D71ABF91DC
:1034B000AF91A29F800D911DA39F900DB29F900D83
:1034C00011240895991B79E004C0991F961708F0FC
:1034D000961B881F7A95C9F780950895AA1BBB1B78
:1034E00051E107C0AA1FBB1FA617B70710F0A61B04
:1034F000B70B881F991F5A95A9F780959095BC0125
:10350000CD01089597FB072E16F4009407D077FDA0
:1035100009D00E946E1A07FC05D03EF49095819563
:103520009F4F0895709561957F4F0895A1E21A2EDF
:10353000AA1BBB1BFD010DC0AA1FBB1FEE1FFF1F57
:10354000A217B307E407F50720F0A21BB30BE40BA7
:10355000F50B661F771F881F991F1A9469F76095EE
:103560007095809590959B01AC01BD01CF010895A8
:10357000052E97FB1EF400940E94CF1A57FD07D02A
:103580000E94961A07FC03D04EF40C94CF1A509563
:103590004095309521953F4F4F4F5F4F089590953F
:1035A0008095709561957F4F8F4F9F4F08950E9432
:1035B000E81AA59F900DB49F900DA49F800D911DBA
:1035C00011240895EE0FFF1F0590F491E02D09944A
:1035D000A29FB001B39FC001A39F700D811D112454
:1035E000911DB29F700D811D1124911D08958F9220
:1035F0009F92AF92BF92CF92DF92EF92FF92CF93C2
:10360000DF93EC01688179818A819B816115710565
:103610008105910521F464E279ED8BE597E02DE1D8
:1036200033EF41E050E00E94B81A49015A019B0172
:10363000AC01A7EAB1E40E94D71A6B017C01ACEEA1
:10364000B4EFA50194010E94561BDC01CB018C0D47
:103650009D1DAE1DBF1DB7FF03C00197A109B04856
:1036600088839983AA83BB83BC01CD019F77DF91B7
:10367000CF91FF90EF90DF90CF90BF90AF909F9051
:103680008F9008950E94F71A089580E091E00E94BB
:10369000F71A08956093000170930101809302016D
:1036A000909303010895B7FF0C94D71A0E94D71A7C
:0A36B000821B930B0895F894FFCFDE
:1036BA000100000004001C0008000101596F757226
:1036CA002073636F72652069733A20004C4F41443E
:0C36DA0045520000000000F314751700BA
:00000001FF
